:040000008031112812
:100008007E1480312000911C0A280B280F2891109B
:1000180001302100BB077E100900803113281230FF
:100028008400A6308500DB30860000308700103061
:1000380098310120803100308400883085004830B4
:1000480086000130870024309831012080315B30F0
:100058008400003085001530A531D0258031A030CE
:100068008400003085003B30A531D0258031203018
:100078008400013085002830A531D02580317E10DC
:1000880020009431082C03302100340603194D2830
:100098004E28792B05303406031D5328542855283B
:1000A800792B3108031959285A285D280130B102E3
:1000B800792B9F31A4278031943186248031210007
:1000C80032080319682869286A2B3D08803A2000FD
:1000D800B90080303902031D74280A3021003C021F
:1000E8000318772878286A2B04302100B400792B6C
:1000F8003D08803A2000B90080303902031D872866
:100108000A3021003C02031C8A288B28792B0A30EC
:100118002100B2000230B400E730AA000330AB007F
:10012800E730A8000330A900E730A6000330A70095
:100138002000E001DF0102302100B100792B4108E5
:10014800803A2000B90021003F08803A2000390297
:10015800031DB12821003E084002031CB428B5281D
:10016800B92805302100B400792B21003F08803AD6
:100178002000B90021002908803A20003902031D17
:10018800C828210028083E020318CB28CC28D128EB
:1001980021003F08A9003E08A80021003F08803A36
:1001A8002000B90021002B08803A20003902031DE5
:1001B800E02821002A083E020318E328E428F12851
:1001C80021003F08AB003E08AA0020005F08DE00BF
:1001D8006008DD0021005708B00001302000DF076B
:1001E8000B305F020318F928FA2822291430F0008E
:1001F8000030F10021002908F3002808F2009F319F
:10020800492780312100280870072000B900210003
:100218002908713D2000BA003A08803ABB00210045
:100228003F08803A20003B02031D1E2921003E089A
:100238002000390203182129222984292000DF01FE
:100248000130E0071430F0000030F10021002708E9
:10025800F3002608F2009F31492780312100260843
:1002680070072000B90021002708713D2000BA005E
:100278003A08803ABB0021002908803A20003B0256
:10028800031D4A29210028082000390203184D2996
:100298004E29662921005703031D5329542957293C
:1002A8001430B200792B0130D7002000DF01E001C3
:1002B800E7302100A8000330A900E730A60003308A
:1002C800A7006B2921002908A7002808A600E73005
:1002D800A8000330A9000B3020006002031C752918
:1002E80076298429E001E7302100A8000330A9001D
:1002F8005703031D80298129822954290130D700F9
:1003080020005F08273E8400A8300318013E8500BE
:1003180000082100D800200060081C3E8400A83096
:100328000318013E850000082100D90093318A2373
:1003380080319F283008D70020005E08273E8400BF
:10034800A8300318013E850000082100D8002000CD
:100358005D081C3E8400A8300318013E8500000893
:100368002100D90020005E08273E8400A830031829
:10037800013E850000082100A40020005D081C3E05
:100388008400A8300318013E850000082100A10060
:1003980020005E080319D129D229E9295E08263EE2
:1003A8008400A8300318013E85000008B9005E08E3
:1003B800273E8400A8300318013E85000008BA00D3
:1003C80039083A022100AF00EB292100AF010A30B9
:1003D80020005E020318F129F229092A5E08273E47
:1003E8008400A8300318013E85000008B9005E08A3
:1003F800283E8400A8300318013E85000008BA0092
:1004080039083A022100AE000B2A2100AE01200073
:100418005D080319102A112A282A5D081B3E84004A
:10042800A8300318013E85000008B9005D081C3E8D
:100438008400A8300318013E85000008BA00390876
:100448003A022100AD002A2A2100AD010A3020001D
:100458005D020318302A312A482A5D081C3E8400B0
:10046800A8300318013E85000008B9005D081D3E4C
:100478008400A8300318013E85000008BA00390836
:100488003A022100AC004A2A2100AC010230F000F7
:100498000030F1002F082000B900BA013908F20035
:1004A8003A08F3009F314927803170082100AF00D6
:1004B8000230F0000030F1002E082000B900BA0127
:1004C8003908F2003A08F3009F3149278031700853
:1004D8002100AE000230F0000030F1002D082000AD
:1004E800B900BA013908F2003A08F3009F314927E8
:1004F800803170082100AD000230F0000030F100BA
:100508002C082000B900BA013908F2003A08F300B3
:100518009F314927803170082100AC002F08240240
:10052800A30024082E07A5002D082102A0002108F9
:100538002C07A200E730AA000330AB0001302000EE
:10054800DF000130E00021002408D8002108D9008C
:1005580093318A23803102302100B1001E30B2006D
:10056800792B4108803A2000B90021003F08803AE1
:1005780020003902031DC32A21003E084002031C43
:10058800C62AC72AC82AB52821003F08803A200071
:10059800B90021002B08803A20003902031DD72A10
:1005A80021002A083E020318DA2ADB2AE52A21005C
:1005B8003F08AB003E08AA0020005F08DE00600884
:1005C800DD0020005F03031DEA2AEB2AFF2A210031
:1005D800240823060319F12AF22AF52A2000DF014C
:1005E8003A2B250824060319FA2AFB2AFF2A023087
:1005F8002000DF003A2B20005F08031D042B052B89
:100608000D2B21002508240603190B2B0C2B0D2B71
:10061800FB2A01302000DF006003031D142B152B7B
:10062800262B21002108200603191B2B1C2B1F2B0E
:100638002000E0013A2B220821060319242B252B40
:10064800262BFB2A20006008031D2B2B2C2B372B75
:100658002100220821060319322B332B372B0230B5
:100668002000E0003A2B01302000E0005F03031D6A
:100678003E2B3F2B572B6003031D432B442B572B3B
:100688005E08A33E8600870101082100D8002000EB
:100698005D08A03E8600870101082100D90093313A
:1006A8008A238031B5285F08A33E860087010108A8
:1006B8002100D80020006008A03E860087010108BC
:1006C8002100D9009A290330B400792B210032087F
:1006D800003A03197C280A3A0319A3281E3A031979
:1006E8009E290A3A0319B52A672B080000340034FA
:1006F800003400340034003400345F3400340034F3
:100708000034073400340734003414347F3414348C
:100718007F34143424342A347F342A341234233472
:10072800133408346434623436344934553422344A
:1007380050340034053403340034003400341C349D
:100748002234413400340034413422341C3400341F
:1007580008342A341C342A340834083408343E3423
:100768000834083400345034303400340034083449
:100778000834083408340834003430343034003451
:100788000034203410340834043402343E345134F4
:10079800493445343E34003442347F3440340034E4
:1007A8004234613451344934463421344134453477
:1007B8004B3431341834143412347F341034273421
:1007C80045344534453439343C344A344934493461
:1007D800303401347134093405340334363449343F
:1007E80049344934363406344934493429341E34BA
:1007F8000034363436340034003400345634363459
:1008080000340034003408341434223441341434AD
:100818001434143414341434413422341434083461
:100828000034023401345134093406343234493442
:10083800793441343E347E341134113411347E34E9
:100848007F3449344934493436343E3441344134B0
:10085800413422347F344134413422341C347F34CF
:1008680049344934493441347F3409340934013432
:1008780001343E3441344134513432347F34083405
:10088800083408347F34003441347F344134003430
:100898002034403441343F3401347F340834143434
:1008A800223441347F3440344034403440347F343F
:1008B8000234043402347F347F340434083410346E
:1008C8007F343E344134413441343E347F3409343A
:1008D8000934093406343E344134513421345E3409
:1008E8007F34093419342934463446344934493478
:1008F80049343134013401347F34013401343F3414
:100908004034403440343F341F34203440342034A1
:100918001F347F342034183420347F346334143443
:10092800083414346334033404347834043403341A
:1009380061345134493445344334003400347F340D
:1009480041344134023404340834103420344134FE
:1009580041347F3400340034043402340134023426
:10096800043440344034403440344034003401349A
:100978000234043400342034543454345434783435
:100988007F34483444344434383438344434443478
:100998004434203438344434443448347F3438348C
:1009A800543454345434183408347E3409340134FB
:1009B800023408341434543454343C347F34083406
:1009C800043404347834003444347D3440340034FE
:1009D8002034403444343D34003400347F341034FF
:1009E80028344434003441347F34403400347C3477
:1009F80004341834043478347C340834043404342B
:100A08007834383444344434443438347C341434FA
:100A180014341434083408341434143418347C343A
:100A28007C3408340434043408344834543454349A
:100A38005434203404343F344434403420343C3477
:100A48004034403420347C341C3420344034203446
:100A58001C343C344034303440343C34443428343E
:100A68001034283444340C345034503450343C342A
:100A78004434643454344C34443400340834363404
:100A880041340034003400347F34003400340034FE
:100A98004134363408340034083408342A341C34D9
:100AA800083408341C342A3408340834FB30200055
:100AB8006106031D602D612D672D6308013AE3006F
:100AC8009031D9208531503020006106031D6D2DED
:100AD8006E2DE32D2830E1026308031D742D752D5A
:100AE800DF2D0230640203187A2D7B2DDF2D640878
:100AF800C300C401C335C40D6530C5000030C6004D
:100B08004308450786004408463D8700403FCD001E
:100B1800413FCE004E08803AC30080304302031D97
:100B2800972D64304D0203189A2D9B2DA12D053069
:100B38002000CD070030CE3DA62D32302000CD0755
:100B48000030CE3D6408031DAA2DAB2DBC2D4E08E8
:100B5800803AC30080304302031DB42D65304D0236
:100B6800031CB72DB82DCE2D2000CD01CE01CE2DE2
:100B78004E08803AC30083304302031DC52DE93077
:100B88004D02031CC82DC92DCE2D20006608CE00AD
:100B98006508CD0020006435653E86000030873D3D
:100BA80064350030873D4D08C03F4E08C13F903145
:100BB800D9208531E32DA531D6258531392F02304D
:100BC800200064020318E92DEA2D342E210056086E
:100BD800803A2000C30080304302031DF62D6530A3
:100BE80021005502031CF92DFA2D312F20006E0823
:100BF80021005606031D042E20006D08210055060D
:100C0800031D072E082E272E20006435693E860016
:100C18000030873D64350030873D21005508C03FCE
:100C28005608C13F98314A208531F801F80A3D300D
:100C3800F900AA30FA00FB0180308D314825853152
:100C480002302000E40703302000C4000830C3004D
:100C58007730890B2D2EC30B2D2EC40B2D2E312F43
:100C680021005608803A2000C30080304302031D4B
:100C7800402E0530210055020318432E442E312FF3
:100C880001302000E4026403031D4B2E4C2E532E2A
:100C980098314A2085319031D9208531312F660825
:100CA8002100CC00200065082100CB002000680846
:100CB8002100CE00200067082100CD004C08FD006F
:100CC8004B08FC0097315B2785317D082000CC005C
:100CD8007C08CB0021004E08FD004D08FC00973130
:100CE8005B2785317D082000CA007C08C900633075
:100CF800860000308700463163308400003085006C
:100D08000831403F0002A0000131413F003BA100F3
:100D1800A201A11BA2032208A3004B084902C30099
:100D28004C084A3BC4004308C5004408C6000030CC
:100D3800C61BFF30C700C8000C30C535C60DC70D2F
:100D4800C80D890BA12E4808A7004708A600460829
:100D5800A5004508A4009531952585312000210876
:100D68002100D200200020082100D10000302000FE
:100D7800A3000030A2001030A1000030A000210024
:100D88005108F0005208F100890D893B8909F200E9
:100D9800F30020006908F4006A08F500890D893B12
:100DA8008909F600F7009A3124228531730820005A
:100DB800A7007208A6007108A5007008A400953164
:100DC80095258531200020084B022100CF00200006
:100DD80021084C3B2100D00029302000C400963067
:100DE800C3007F30890BF62EC30BF62EC40BF62EEC
:100DF8006830F6000030F700CB30F8000030F9001A
:100E08000230FA009831262085316630F60000302D
:100E1800F700CD30F8000030F9000230FA009831C0
:100E2800262085317130F6000030F700CF30F80009
:100E38000030F9000230FA009831262085316430FC
:100E4800F6000030F700D130F8000030F900023029
:100E5800FA00983126208531DF2D21005608200020
:100E6800EE00210055082000ED000800FB302000AE
:100E78006106031D402F412F4D2F0130E307053038
:100E88006302031C482F492F4A2FE3019231912214
:100E98008731503020006106031D532F542FF22F45
:100EA8002830E1026308031D5A2F5B2F672F680360
:100EB800031D5F2F602F622FE801642F0130E800C7
:100EC80092319122873120006303031D6C2F6D2F0F
:100ED800862F0530E6070030E73D6708803ABD00F9
:100EE80080303D02031D7A2FC9306602031C7D2F16
:100EF8007E2F832F78302000E6000030E700923103
:100F080091228731023020006306031D8C2F8D2F1C
:100F1800A62F0530E4070030E53D6508803ABD009E
:100F280080303D02031D9A2F97306402031C9D2FC9
:100F38009E2FA32F64302000E4000030E50092319A
:100F480091228731033020006306031DAC2FAD2F9B
:100F5800EB2F68082100C400200067082100C300A7
:100F6800200066082100C200200065082100C10099
:100F7800200064082100C0006E30F6000030F70041
:100F8800C030F8000030F9000230FA00983126200D
:100F980087316C30F6000030F700C230F8000030BE
:100FA800F9000230FA009831262087317430F600B3
:100FB8000030F700C430F8000030F900FA01FA0AEE
:100FC800983126208731A531D6258731F22F043074
:100FD8006306031DF02FF12FF22FE72F08002100E1
:100FE8000D1424000D1421008D1424008D142100EB
:100FF8000D1524000D1508006934A8345E34A83492
:101008005334A8344834A8343D34A8343234A8348E
:10101800A634A934A034A9348E34A9349A34A93416
:101028009434A9348834A934C434A934B234A934E2
:10103800B834A934BE34A934CA34A934AC34A93478
:1010480020006108031D29282A282C282830E500BB
:10105800FB306106031D312832283E280130E407A1
:101068000A306402031C39283A283B28E4018831F5
:10107800CF208831503020006106031D44284528C0
:10108800CE286508E1020B306502031C4C284D2868
:101098004F280530E5020830640203185428552803
:1010A80097286830BA000030BB0064083A07860009
:1010B80000303B3D87000108BC00BD0165280130B8
:1010C800BD073D08003E8400A0300318013E85009E
:1010D80000083C06031971287228782849303D0217
:1010E800031C7728782863280130BD0748303D0263
:1010F800031C7F2880288128BD016830BA00003091
:10110800BB0064083A07860000303B3D87003D0875
:10111800003E8400A0300318013E850000088100CD
:101128008831CF208831083020006406031D9D28AF
:101138009E28C728A7314027883171082000E7007A
:101148007008E6006308BA00BB013A08F0003B08E3
:10115800F1000A30F2000030F300A731E1278831AE
:101168007008003EF6000030713DF7006630F80068
:101178000030F9000A30FA00983126208831A5316C
:10118800D6258831CE2809306406031DCC28CD2801
:10119800CE28C32808002000B901B1016830FC003E
:1011A8000030FD0039087C07860000307D3D87004F
:1011B8000108B200640839060319E328E52801305C
:1011C800E6280030B3003908023EA63122268831CD
:1011D80001302000B90708303902031CF428F5282B
:1011E800D128083064020318FA28FB284F296830F0
:1011F800FC000030FD0064087C07860000307D3D5F
:1012080087000108B700B9010B290130B90739086F
:10121800003E8400A0300318013E85000008370610
:101228000319172918291E2949303902031C1D29B9
:101238001E290929B101B10A3708B200B301B30A5E
:101248000230A6312226883101302000B800013052
:10125800B90748303902031C322933293429B90126
:10126800B101B10A3908003E8400A0300318013EDC
:1012780085000008B200B3013808023EA6312226D4
:10128800883101302000B80708303802031C4D2986
:101298004E292B295A29F801F80A6930F900A83093
:1012A800FA00FB0100308D31482588310330F80001
:1012B8000630F900AA30FA00083020006406031945
:1012C80066296829013069290030FB0000308D311A
:1012D800482588310330F8003130F900AA30FA0087
:1012E80009302000640603197A297C2901307D29F8
:1012F8000030FB0007308D31482588310800200078
:101308006308BC000130BA000230BB002100570856
:1013180003198F299029952902302000BA0001303D
:10132800BB0020003A08F8004030F900AA30FA0063
:10133800FB0100308D314825893133302000A3006E
:101348000730A40099316721893120003A08F80054
:101358003330F9000030FA003A08FF3EB100FF30A0
:1013680003180030B2003C08310632040319BD29C5
:10137800BF290130C0290030FB0004308D314825D9
:10138800893120003B08F8004330F900AA30FA0000
:10139800FB0100308D314825893133302000A3000E
:1013A8000730A40099319521893120003B08F800C5
:1013B8003330F9000030FA003B08FF3EB100FF303F
:1013C80003180030B2003C08310632040319ED2935
:1013D800EF290130F0290030FB0004308D31482519
:1013E800893121005708031DFA29FB29102A0330E7
:1013F800F8001F30F900AA30FA00023020003C063D
:101408000319072A092A01300A2A0030FB00003094
:101418008D3148258931242A0330F8001A30F90023
:10142800AA30FA00023020003C0603191C2A1E2AA2
:1014380001301F2A0030FB0000308D3148258931EA
:101448000330F8003130F900AA30FA0003302000E8
:101458003C060319302A322A0130332A0030FB00B7
:1014680007308D3148258931080000302000B70049
:101478000030B6000030B5000030B4000030BB00CA
:101488000030BA000030B9000030B800BD01BC011E
:101498000130BD073D35343E860001308700403FAE
:1014A800AE00413FAF003C35343E86000130870036
:1014B8002E08C03F2F08C13F2E08B0002F08B100EA
:1014C8000030B11BFF30B200B3003008B407310858
:1014D800B53D3208B63D3308B73D3D35203E860060
:1014E80001308700403FAE00413FAF003C35203E11
:1014F8008600013087002E08C03F2F08C13F2E0804
:10150800B0002F08B1000030B11BFF30B200B300AB
:101518003008B8073108B93D3208BA3D3308BB3D39
:101528000130BC0709303C02031C9B2A9C2A4C2A28
:1015380001309931F2218A3120003D35343E860050
:10154800013087007008C03F7108C13F7008AE00C5
:101558007108AF000030AF1BFF30B000B1002E089B
:10156800B4072F08B53D3008B63D3108B73D003007
:101578009931F2218A3120003D35203E8600013024
:1015880087007008C03F7108C13F7008AE0071083D
:10159800AF000030AF1BFF30B000B1002E08B80715
:1015A8002F08B93D3008BA3D3108BB3D0030A300D3
:1015B8000030A2000030A1000A30A0003708A700C0
:1015C8003608A6003508A5003408A40095319525ED
:1015D8008A31200021082100D6002000200821009F
:1015E800D50000302000A3000030A2000030A10088
:1015F8000A30A0003B08A7003A08A6003908A50051
:101608003808A400953195258A3120002108210049
:10161800D400200020082100D30008000230200058
:10162800C6000330C700B10121003D082000B30007
:1016380021003C082000B200B40104309D3151253E
:101648008B312000B101B10A21003F082000B3000E
:1016580021003E082000B200B40104309C3140242F
:101668008B312100570803193A2B3B2B402B0330B1
:101678002000C6000230C70021004803031D452B87
:10168800462B532B0330F8001630F900A930FA0026
:10169800FB01FB0A00308D3148258B31DF2BDA1C2A
:1016A800562B572B9F2B5608F9005508F8003F304A
:1016B800FA000730FB0093310C238B3120004608D9
:1016C800F8005530F900A930FA00FB0100308D31DF
:1016D80048258B3120004608F8003F30F9000030DB
:1016E800FA00FB0104308D3148258B312100540864
:1016F800F9005308F8003F30FA000730FB00933137
:101708000C238B3120004708F8002430F900AA3058
:10171800FA00FB0100308D3148258B312000470845
:10172800F8003F30F9000030FA00FB0104308D3139
:1017380048258B31DF2B20004608F8004030F9009F
:10174800AA30FA00FB0100308D3148258B313F303B
:101758002000A3000730A400993167218B312000B5
:101768004608F8003F30F9000030FA00FB0102306B
:101778008D3148258B3120004708F8004330F900A7
:10178800AA30FA00FB0100308D3148258B313F30FB
:101798002000A3000730A400993195218B31200047
:1017A8004708F8003F30F9000030FA00FB0102302A
:1017B8008D3148258B3121004403031DE42BE52B93
:1017C800092C48030319E92BEA2B092C15302000B2
:1017D800BD00AA30BE00C8014808B10048083D074E
:1017E80084003E080318013E85000008B200B301DA
:1017F8000930A63122268B3101302000C807043079
:101808004802031C082C092CF02B0800013020008A
:10181800E6070A306606031D122C132C382CE60145
:101828009F31A4278C31943186248C312000B1015A
:1018380021003F082000B30021003E082000B2002C
:10184800B40100309C3140248C312000B1012100CA
:101858003D082000B30021003C082000B200B4017C
:1018680006309D3151258C31FB3020006106031D67
:101878003E2C3F2C4B2C0130E30704306302031C41
:10188800462C472C482CE301893183218C31503078
:1018980020006106031D512C522CC72C2830E10270
:1018A80021005708031D592C5A2C602C200063086E
:1018B80003195F2C602C6C2C210057080319652C28
:1018C800662C782C20006303031D6B2C6C2C782C61
:1018D80021005808031D712C722C752C0130D8007A
:1018E800782C58357F39D80021005708031D7D2CE6
:1018F8007E2C842C200063030319832C842C902CC9
:10190800210057080319892C8A2C9C2C2000630875
:10191800031D8F2C902C9C2C21005908031D952CFD
:10192800962C992C0130D9009C2C59357F39D90037
:10193800023020006306031DA22CA32CB02C21002A
:101948005708031DA82CA92CAC2C0130D700AD2CAE
:10195800D701FF302000E10003306306031DB52CDA
:10196800B62CC12C6508F2006408F100A631802667
:101978008C31A531D6258C31472D893183218C3185
:1019880093318A238C312000BD0121005708031DA3
:10199800CE2CCF2CD52C200063080319D42CD52CA1
:1019A800E12C210057080319DA2CDB2C022D20002A
:1019B8006303031DE02CE12C022D21003503031DD8
:1019C800E62CE72CF12C58080319EB2CEC2CEE2C08
:1019D8000130D80201302000BD0021003603031D6C
:1019E800F62CF72C022D7F3058020318FC2CFD2C06
:1019F800FF2C0130D80701302000BD002100570816
:101A0800031D072D082D0E2D2000630303190D2D2E
:101A18000E2D1A2D210057080319132D142D3B2DB7
:101A280020006308031D192D1A2D3B2D21003503B5
:101A3800031D1F2D202D2A2D59080319242D252D6E
:101A4800272D0130D90201302000BD0021003603C6
:101A5800031D2F2D302D3B2D7F3059020318352DB6
:101A6800362D382D0130D90701302000BD00200067
:101A78003D080319402D412D472D93318A238C3180
:101A8800893183218C3108002000A4007B080319C8
:101A98004E2D4F2D522DFF30AE00532DAE0178350F
:101AA800A70080302406031D5A2D5B2D8B2DA9011C
:101AB8007A08AD007908AC00672D0130A90701301C
:101AC800AC070030AD3D2C0884002D0885001200BD
:101AD800031D6F2D702D612D0C30F0002908A631E3
:101AE8005A268D312000A9000230F0000030F100A4
:101AF8008030A00029082002F200F301031CF30340
:101B08009F3149278D3170082000A800932D0C3093
:101B1800F0002408A6315A268D312000A800280894
:101B2800F20027089931C3218D317A082000AD00D1
:101B38007908AC00102E2C0884002D0885000008B8
:101B4800E03EF000FF3003180030F1000530F200ED
:101B58000030F300A731E1278D3171082000A6007D
:101B68007008A500AA017A30A0008330A1002A08D5
:101B78002007A2000030213DA30022082507840089
:101B88002308263D85000008B000AF13B01DCD2DF9
:101B9800AF1720002F13301DD22D2F172000AF12A2
:101BA800301DD72DAF1620002F12B01CDC2D2F169C
:101BB8002000AF11B01CE12DAF1520002F11301CF3
:101BC800E62D2F152000AF10301CEB2DAF14200090
:101BD8002F102F082E06AF002F089B315E238D3162
:101BE80020002F089B315E238D3101302000AA0789
:101BF80005302A02031C012E022EB72D2E089B3118
:101C08005E238D3120002E089B315E238D310130FB
:101C18002000AC070030AD3D2C0884002D0885005D
:101C28001200031D182E192E9F2D2808F2002708D0
:101C3800013E9931C3218D317A082000AD00790821
:101C4800AC00972E2C0884002D0885000008E03E83
:101C5800F000FF3003180030F1000530F2000030CA
:101C6800F300A731E1278D3171082000A600700824
:101C7800A500AB017A30A0008330A1002B08200713
:101C8800A2000030213DA300220825078400230874
:101C9800263D85000008B000AF132F13301F552EC6
:101CA8002F172000AF12301F5A2EAF1620002F1208
:101CB800B01E5F2E2F162000AF11B01E642EAF1578
:101CC80020002F11301E692E2F152000AF10301E56
:101CD8006E2EAF1420002F10B01D732E2F1420006D
:101CE8002F082E06AF002F089B315E238D31200070
:101CF8002F089B315E238D3101302000AB07053062
:101D08002B02031C882E892E3E2E2E089B315E2323
:101D18008D3120002E089B315E238D31013020004B
:101D2800AC070030AD3D2C0884002D08850012005A
:101D3800031D9F2EA02E262EA63147268D31080082
:101D48009F31A4278E31943186248E3121003D089D
:101D5800803A2000C90080304902031DB62E0530A4
:101D680021003C02031CB92EBA2ED32E21004503B4
:101D7800031DBF2EC02ED32E470820006706031D63
:101D8800C92E2100460820006606031DCC2ECD2E44
:101D9800D02EA531DF258E312000E601E701210094
:101DA8004503031DD82ED92E222F48030319DD2EF3
:101DB800DE2E222F20006708803AC900210047083C
:101DC800803A20004902031DED2E2100460820001C
:101DD80066020318F02EF12E222F01302000E807AA
:101DE80064306806031DF92EFA2E222FE80101300F
:101DF800E6070030E73D2100470820006706031D7D
:101E0800092F2100460820006606031D0C2F0D2F00
:101E1800222F98314A208E31F801F80A0D30F90046
:101E2800A930FA00FB0180308D3148258E31003011
:101E3800F100F200A63180268E31222F200067089B
:101E4800803AC90021004708803A20004902031D52
:101E5800312F2100460820006602031C342F352F3D
:101E68003B2F2100450303193A2F3B2FF62F013052
:101E78002000E3070A306306031D432F442F672F12
:101E8800E30121003D08803A2000C9008030490262
:101E9800031D512F013021003C020318542F552FE8
:101EA8005C2F20006408650403195B2F5C2F672FE3
:101EB80021003D082000E50021003C082000E40046
:101EC8008B3112238E3121004403031D6C2F6D2F9B
:101ED800A52F48030319712F722FA52F3D08803AAB
:101EE8002000C90080304902031D7D2F01302100E8
:101EF8003C02031C802F812FA52F21003F08803A28
:101F08002000C90021004308803A20004902031D2F
:101F1800902F210042083E02031C932F942FA52FD7
:101F280082302000DB00A930DC0002305B0784002F
:101F38005C080318013E8500013F8A00003F0A0043
:101F48008F31FB3020006106031DAB2FAC2FCD2F46
:101F580021004803031DB12FB22FBB2FC8014A0827
:101F6800F2004908F100A63180268E31C02F823058
:101F78002000DB00A930DC00023020005B07840071
:101F88005C080318013E8500013F8A00003F0A00F3
:101F98008F31503020006106031DD32FD42FFF2F1F
:101FA80021004803031DD92FDA2FE32FC8014A085F
:101FB800F2004908F100A63180268E31E82FD03092
:101FC8002000DB00A930DC00023020005B07840021
:101FD8005C080318013E8500013F8A00003F0A00A3
:101FE8008F31FF2F20006103031DFB2FFC2FFF2FD4
:101FF800A531DF258E31080098314A209031F8014B
:10200800C130F900A830FA00FB0100308D314825B5
:10201800903101302000E600A531EB259031080011
:1020280020006103031D19281A2874286308031D5A
:102038001E281F2850280130E30798314A20903184
:10204800F801F830F900A830FA00FB0180308D3132
:1020580048259031F801F80A3130F900A930FA0022
:10206800FB0180308D31482590310230F800523024
:10207800F900A930FA00FB0180308D3148259031F4
:102088000330F800FA30F900A930FA00FB0180307B
:102098008D314825903174286303031D5428552831
:1020A80071280130E30798314A209031F801F80A85
:1020B8000330F900A930FA00FB0180308D31482542
:1020C80090310230F8006F30F900A930FA00FB01B6
:1020D80080308D31482590317428A531D62590312E
:1020E8000800FB3020006106031D7B287C28882817
:1020F8000130E30703306302031C83288428852802
:10210800E3019D31F3259031503020006106031D15
:102118008E288F28D8282830E1026308031D9528C7
:102128009628A128640803199A289C2801309D281C
:102138000030E4009D31F325903120006303031D36
:10214800A628A728CE2864080319AB28AC28AF28EE
:1021580021005A14B228FE302100DA057030F6004A
:102168000030F700DA30F8000030F900FA01FA0A16
:1021780098312620903121005A18C328C5280130EB
:10218800C6280030F70078309631B9269031A5314D
:10219800D6259031023020006306031DD428D528A7
:1021A800D828A531D6259031080021006A082000DA
:1021B800C200210069082000C1006408313EC10046
:1021C800F801EE30F900A930FA00FB0100308D313A
:1021D80048259031F8014130F9000030FA00FB0140
:1021E80009308D3148259031F801F80A5E30F90040
:1021F800A830FA00FB0100308D31482590310230BB
:10220800F800F430F900A930FA00FB0100308D31F4
:102218004825903102302000B1006408BD00BE019D
:10222800BD35BE0D6530BF000030C0003D083F071A
:1022380086003E08403D8700403FB200413FB30062
:102248006308031928292A2901302B290030B400F2
:1022580006309D31512590310330F8003130F900B6
:10226800AA30FA002000630303193B293D290130F5
:102278003E290030FB0007308D3148259031080099
:10228800C030F3000030F4000230F5006E30A731A2
:1022980028279131C230F3000030F4000230F500F5
:1022A8006C30A73128279131C430F3000030F40096
:1022B800F501F50A7430A73128279131C630F300AB
:1022C8000030F4000230F5006A30A7312827913138
:1022D800C530F3000030F400F501F50A7330A7317A
:1022E80028279131CB30F3000030F4000230F5009C
:1022F8006830A73128279131CD30F3000030F40041
:102308000230F5006630A73128279131CF30F3002D
:102318000030F4000230F5007130A73128279131E0
:10232800D130F3000030F4000230F5006430A731FA
:1023380028279131DA30F3000030F400F501F50A6E
:102348007030A7312827913121005A0A031DAD2981
:10235800AE29AF29DA01080001302000E607003075
:10236800E73D01306702F43003196602031CBD29FA
:10237800BE29C229A531D62591311D2AFB30610617
:10238800031DC729C829FB29E601E701650864027E
:10239800B900ED2901302000E407F8296508043E5A
:1023A800B600003003180130B7003708803AB8008B
:1023B80080303802031DE229630836020318E52934
:1023C800E629CE2901302000E507CE29E501E40100
:1023D800F8293908003A0319CE29013A0319D229F4
:1023E800033A0319CE29EA299B3128239131503029
:1023F80020006106031D012A022A1D2A6408B6006E
:10240800B701B635B70D3608680786003708693D45
:102418008700403FDB00413FDC0002305B0784005F
:102428005C080318013E8500013F8A00003F0A004E
:102438009231080020006308B5006403031D252AB3
:10244800262A382AF8012930F900AA30FA00350876
:1024580003192F2A312A0130322A0030FB000730B5
:102468008D3148259231492AF8012D30F900AA30DA
:10247800FA0035080319412A432A0130442A00305A
:10248800FB0007308D314825923120006608F9009D
:102498006508F8003130FA000430FB0093310C2352
:1024A8009231F801F80A3130F9000030FA002000C2
:1024B80035030319602A622A0130632A0030FB00C1
:1024C80007308D31482592310330F8000630F90085
:1024D800AA30FA000230200035060319742A762A39
:1024E8000130772A0030FB0000308D3148259231C9
:1024F8000330F8003130F900AA30FA000330200028
:1025080035060319882A8A2A01308B2A0030FB00F5
:1025180007308D3148259231080020006308BC003F
:102528006803031D982A992AAB2AF8012930F90073
:10253800AA30FA003C080319A22AA42A0130A52AC5
:102548000030FB0007308D3148259231BC2AF80154
:102558002D30F900AA30FA003C080319B42AB62A2B
:102568000130B72A0030FB0007308D314825923101
:102578002000B101B10A6708B3006608B2003C0345
:102588000319C72AC92A0130CA2A0030B400063004
:102598009C314024923102302000B1006508B3001C
:1025A8006408B20002303C060319DB2ADD2A013038
:1025B800DE2A0030B40006309C31402492310330CA
:1025C800F8000630F900AA30FA00033020003C0673
:1025D8000319EF2AF12A0130F22A0030FB000030FB
:1025E8008D31482592310330F8003130F900AA3096
:1025F800FA00043020003C060319032B052B013098
:10260800062B0030FB0007308D3148259231080039
:102618002000A00102307B020318132B142B152B6A
:10262800892B7B08FF3EA1007A082107A200220817
:10263800860087018101F91F222B232B2A2B0130C9
:10264800A000F809F909F80A0319F90A0130A102EA
:102658000130A2027908803AFC0080307C02031D18
:10266800372B01307802031C3A2B3B2B5D2B2000C3
:102678002208860087010A30F0000030F10079084E
:10268800F3007808F2009D31002593317008303E40
:1026980081000A30F0000030F1007908F300780872
:1026A800F2009F31492793317108F9007008F8004A
:1026B800832B7B08FE3EFC00FF3003180030FD0032
:1026C800200021087C067D04031D6B2B6C2B722BCC
:1026D80022088600870130308100832B20080319E7
:1026E800762B772B7E2B2208860087012D308100E0
:1026F800A001832B2208860087012030810020005A
:102708002108031D882B892B2A2B08002100590832
:10271800F0007018902B932B22008D15952B22001A
:102728008D11F018982B9B2B22000C159D2B220045
:102738000C117019A02BA32B22000D16A52B22001B
:102748000D12F019A82BAB2B22008C15AD2B2200F3
:102758008C11701AB02BB32B22008D16B52B2200CA
:102768008D12F01AB82BBB2B22008C16BD2B220021
:102778008C12701BC02BC32B22000C16C52B2200F9
:102788000C1221005808F0007018CB2BCE2B220019
:102798008E17D02B22008E13F018D32BD62B2200A5
:1027A8008E15D82B22008E117019DB2BDE2B220000
:1027B8000E17E02B22000E13F019E32BE62B220054
:1027C8000E15E82B22000E11701AEB2BEE2B2200AF
:1027D8008E16F02B22008E12F01AF32BF62B220005
:1027E8008E14F82B22008E10701BFB2BFE2B220060
:1027F8000E16002C22000E122100570C2200031C7A
:102808000E1003180E1408009A31F32294319131F6
:10281800442194318731F3279431A7311227943119
:10282800F430F0000130F100A73171279431210014
:102838005A181F2C212C0130222C0030F700783038
:102848009631B9269431F8014A30F900A930FA00D6
:10285800FB0180308D3148259431F801F80A423067
:10286800F900A930FA00FB0180308D3148259431F8
:102878000230F8003A30F900A930FA00FB01803044
:102888008D3148259431DC30F0000530F100A73156
:102898007127943198314A209431A531D625943145
:1028A8005130F3000030F4000A30F5000030A73151
:1028B8002827943120005208F2005108F100A6316F
:1028C8008026943121003A083B0603196C2C6D2CA4
:1028D800742C0130BA070130B9078A313922943192
:1028E8000A3021003906031D7A2C7B2C662CB9018D
:1028F8009E319A269431A731C42794316400662CFE
:10290800803111282000AE01AF0121005608803A1D
:10291800FC0080307C02031D932C64305502031C9C
:10292800962C972C012D21005408803AFC0056085B
:10293800803A7C02031DA22C550853020318A52CCB
:10294800A62CFC2CBC308600003087005731BC30E8
:102958008400003085001931403F00022000A000AB
:102968000131413F003BA100A201A11BA2032208A3
:10297800A300BC308600003087005731BC3084008B
:10298800003085001931403F0007F0000131413F18
:10299800003DF100F201F11BF2037208F300003070
:1029A800F7000030F6000030F5006430F4009A318A
:1029B8002422943173082000A7007208A600710829
:1029C800A5007008A40095319525943120002108B0
:1029D800AF002008AE002F08803AFC0083307C024C
:1029E800031DF82CE8302E02031CFB2CFC2C012DB7
:1029F800E7302000AE000330AF0020002F08210090
:102A0800BF0020002E082100BE0008000130200071
:102A1800E3070030E43D01306402F4300319630237
:102A2800031C172D182D1C2DA531D6259531942D55
:102A3800FB306106031D212D222D522DE301E401F7
:102A480067086502C400472D01302000E5074F2DB7
:102A58006708033EC100003003180130C200420875
:102A6800803AC30080304302031D3C2D0A304102E6
:102A780003183F2D402D282D01302000E707282D71
:102A8800E701E5014F2D4408003A0319282D013AC2
:102A980003192C2D442D9E31F126953150302000FC
:102AA8006106031D582D592D942D6603031D5D2DB8
:102AB8005E2D7B2D6508031D622D632D682D7630F4
:102AC800DB00A930DC006E2D6508E3007C30DB00FC
:102AD800A930DC0002305B0784005C080318013E63
:102AE8008500013F8A00003F0A009531942D45304A
:102AF800F3000030F4000A30F5000A30F0006508F1
:102B0800A6315A269531003EA73128279531200055
:102B18004608F2004508F100A63180269531182DA7
:102B280008002000A901A31F9A2D9B2DA82DA009FC
:102B3800A109A209A309A00A0319A10A0319A20A53
:102B48000319A30A0130A900A71FAB2DAC2DB92D7D
:102B5800A409A509A609A709A40A0319A50A03191E
:102B6800A60A0319A70A0130A9060030AD000030F3
:102B7800AC000030AB000030AA0023082204210476
:102B880020040319C82DC92D082E0130A800D52D01
:102B98000130A035A10DA20DA30D890BCD2D01305B
:102BA800A807A31FD82DD92DCC2D0130AA35AB0DE0
:102BB800AC0DAD0D890BDA2D23082702031DEE2D70
:102BC80022082602031DEE2D21082502031DEE2DE5
:102BD80020082402031CF12DF22DFB2D2008A4024D
:102BE8002108A53B2208A63B2308A73B2A1401304D
:102BF800A336A20CA10CA00C890BFC2D0130A80255
:102C0800031D072E082ED92D290803190C2E0D2E69
:102C1800182EAA09AB09AC09AD09AA0A0319AB0A0F
:102C28000319AC0A0319AD0A2D08A3002C08A20049
:102C38002B08A1002A08A0000800FB30200061062C
:102C4800031D272E282E342E0130E307043063029B
:102C5800031C2F2E302E312EE30192311E22963185
:102C6800503020006106031D3A2E3B2EB82E283026
:102C7800E1026308031D412E422E4E2E6403031DFC
:102C8800462E472E492EE4014B2E0130E4009231A6
:102C98001E22963120006303031D532E542E812ECD
:102CA8006608803AB60080303602031D5D2E643017
:102CB8006502031C602E612E672E0F302000E50789
:102CC8000030E63D6C2E05302000E5070030E63D7B
:102CD8006608803AB60081303602031D752E2D3005
:102CE8006502031C782E792E7E2E05302000E50023
:102CF8000030E60092311E22963102302000630631
:102D0800031D872E882EB12E66082100C7002000DB
:102D180065082100C600200064082100C5006A304B
:102D2800F6000030F700C630F8000030F900023035
:102D3800FA009831262096317330F6000030F700FB
:102D4800C530F8000030F900FA01FA0A9831262057
:102D58009631A531D6259631B82E03306306031D6A
:102D6800B62EB72EB82EAD2E0800F8007808200031
:102D7800E20077082100B8000D178D1722000D1307
:102D88008D130630890BC62E0032A731582796318D
:102D9800200062089B315E23963100309B315E2310
:102DA8009631AE309B315E239631D5309B315E2310
:102DB800963180309B315E239631A8309B315E235B
:102DC80096313F309B315E239631D3309B315E2361
:102DD800963100309B315E23963140309B315E2323
:102DE80096318D309B315E23963114309B315E23B2
:102DF800963181309B315E239631FF309B315E23C3
:102E08009631D9309B315E239631F1309B315E2368
:102E1800963120309B315E23963102309B315E2300
:102E2800963121309B315E23963100309B315E23F1
:102E380096317F309B315E2396312E309B315E2355
:102E4800963121003803031D2A2F2B2F342FA03051
:102E58009B315E239631C0309B315E2396313C2FE7
:102E6800A1309B315E239631C8309B315E23963169
:102E7800DA309B315E23963112309B315E239631D6
:102E8800DB309B315E23963140309B315E23963197
:102E9800A4309B315E239631A6309B315E23963158
:102EA800A6314726963198314A20963108007C0889
:102EB800F0007D08F100890D893B8909F200F300D3
:102EC8000030F7000030F600C330F5005030F40051
:102ED8009A312422973173082000B9007208B8008B
:102EE8007108B7007008B6000030A3000030A200D7
:102EF8000030A1000230A0003908A7003808A60059
:102F08003708A5003608A40095319525973120008B
:102F18002308BD002208BC002108BB002008BA0015
:102F28000030C1000030C0000030BF000030BE00DB
:102F3800E92F3D08C1003C08C0003B08BF003A0823
:102F4800BE004108A3004008A2003F08A1003E08B7
:102F5800A0003908A7003808A6003708A5003608D9
:102F6800A400953195259731200020083E07AE0032
:102F780021083F3DAF002208403DB0002308413DF5
:102F8800B1003108B5003008B4002F08B3002E088E
:102F9800B2000030A3000030A2000030A1000230CF
:102FA800A0003508A7003408A6003308A500320899
:102FB800A40095319525973120002308BD002208EB
:102FC800BC002108BB002008BA0041083D06031DCB
:102FD800F72F40083C06031DF72F3F083B06031D4B
:102FE800F72F3E083A06031DFA2FFB2F9D2F3B08AB
:082FF800FD003A08FC0008008E
:10300200FE0012001E00FE0B0228003498314A20F6
:103012009831A531CA259831F8016830F900A930F4
:10302200FA00FB01FB0A80308D31482598312000DF
:10303200E401A7314027983171082000E6007008AA
:10304200E500A6310326983108007808FB003F28E6
:10305200230095182D282E2829287B088600870111
:103062000108F00076089831BB2098310130FA024D
:103072000130F6070030F73D0130FB077A08031DE7
:1030820043284428292823009518482849284428F9
:103092000800A531C0259831F601F2017608993170
:1030A200C3219831F50100309B315E239831013004
:1030B200F50780307502031C5F2860285428013010
:1030C200F60708307602031C672868284E28A631C6
:1030D20047269831A531C5259831080021003408CA
:1030E200FC0002307C06031D772878288328200004
:1030F200640803197D287E288128E401FC018328C5
:103102000130E4000230F8007C35483E8600013090
:103112008700403FF900413FFA00FB0180308D31CA
:103122004825983108000330F8000630F900AA302B
:10313200FA002000640803199F28A1280130A22860
:103142000030FB0000308D31482598310330F80003
:103152003130F900AA30FA00200064030319B228C2
:10316200B4280130B5280030FB0007308D314825E6
:1031720098310800F30023009518C028C128BC2804
:103182007308F100F2017108910072089200700850
:1031920093003F309505200003108B1FD128D228C1
:1031A200D32803148B132300151555309600AA302B
:1031B2009600951415112000031CE028E128E2284E
:1031C2008B17080080314720983101302000E30737
:1031D20032306306031DEE28EF28F328E30198310D
:1031E2006F20983120006103031DF828F928042973
:1031F2006608F2006508F100A63180269831A531F3
:10320200D62598310C29053021003406031D0A29E0
:103212000B290C290029080098314A209931A5313F
:10322200CA259931F8013530F900AA30FA00FB01BC
:1032320000308D3148259931F801F80A3930F9000A
:10324200AA30FA00FB0100308D3148259931200067
:10325200E301FF30E400FF30E500E801E601E701A9
:10326200A7314027993171082000EA007008E9006F
:10327200080098314A209931A531CA259931F801BF
:10328200E230F900A930FA00FB0100308D31482507
:103292009931F801F80AE830F900A930FA00FB0187
:1032A20000308D31482599312000E3012100450885
:1032B2002000E400210047082000E6002100460823
:1032C2002000E50092311E229931080007302000CB
:1032D200240203186D296E296F2994299A315722E5
:1032E200993171082000A6007008A5002608F9008F
:1032F2002508F8002308FA000530FB0093310C235F
:10330200993120002308043E860087017030810035
:103312002308053E86008701463081002308063EC9
:10332200860087018101080007302000240203186B
:103332009B299C299D29C2299A318B229931710896
:103342002000A6007008A5002608F9002508F8004C
:103352002308FA000530FB0093310C239931200039
:103362002308043E860087016E3081002308053E53
:1033720086008701483081002308063E86008701C7
:1033820081010800F400A731582799312000620812
:103392009B315E23993100309B315E239931740851
:1033A200B03E9B315E23993172080F399B315E2307
:1033B20099317208F3000430F336890BDD29730862
:1033C200103E9B315E239931A73158279931200055
:1033D20062089B315E23993140309B315E239931E3
:1033E2000800F9007908F200F20DF20D21001D0823
:1033F2007206833972069D000630890BFE2900325F
:1034020021009D149D18062A072A032A1C08F2008F
:10341200F3017208F7007308F8007808F3007708E0
:10342200F2007208F300F2011B087207F500003087
:10343200733DF600F535F60DF535F60D7508F0001D
:103442007608F10008000030FB000030FA0000307E
:10345200F9000030F800701C2F2A302A382A74082C
:10346200F8077508F93D7608FA3D7708FB3D01300B
:10347200F435F50DF60DF70D890B392A0130F336C7
:10348200F20CF10CF00C890B402A730872047104DF
:103492007004031D4D2A4E2A2C2A7B08F3007A0859
:1034A200F2007908F1007808F0000800F601F7014F
:1034B200F8010130F200780A5F2AF235890B5E2AA0
:1034C2007208210058050319672A682A7E2A78089B
:1034D200F200F301F235F30D0E307207840028304A
:1034E200733D80388500003FF400013FF500760807
:1034F2007407F6007708753DF7000130F8070730CA
:103502007802031C852A862A5A2A7708F10076084F
:10351200F0000800F601F701F8010130F200780A24
:10352200932AF235890B922A720821005905031950
:103532009B2A9C2AB22A7808F200F301F235F30D95
:103542000030720784002830733D80388500003FC8
:10355200F400013FF50076087407F6007708753D20
:10356200F7000130F80707307802031CB92ABA2A9B
:103572008E2A7708F1007608F000080098314A2078
:103582009A31F8012830F900A930FA00FB018030A5
:103592008D3148259A31F801F80A1F30F900A93017
:1035A200FA00FB0180308D3148259A310230F80053
:1035B2005230F900A930FA00FB0180308D314825E4
:1035C2009A310330F8000030F900AA30FA00FB010A
:1035D20080308D3148259A31A531CA259A31200093
:1035E200E30108007A302100990022008C018D014C
:1035F2008E0120001C08FC3902389C0087309C0593
:10360200FA309B00210091140B1720001C158B1718
:10361200C03023008D0522009113931321008E13D5
:103622008E110E130E118E128E100E120E108D119F
:103632000C110D128C118D128C120C12D901D801A1
:10364200D7016430C0000030C1009513080020008B
:103652006508FC00FD017D08F8007C082000B1002F
:10366200B201B135B20D3108680786003208693DF2
:103672008700403FB300413FB40033088400340860
:103682008500003FF900013FFA0064087C06031937
:103692004B2B4D2B01304E2B0030FB0080308D31F7
:1036A20048259B310130FC070130FD0704307D02C3
:1036B200031C5C2B5D2B2C2B0800F000F101F01B8E
:1036C200632B642B672B21008D13692B21008D172F
:1036D2000630890B6A2B003221000D170630890B48
:1036E200702B003221000D130630890B762B00322D
:1036F2007035F0000130F10708307102031C822B93
:10370200832B602B21008D170630890B862B00320C
:1037120021000D170630890B8C2B003221000D136E
:103722000630890B922B003208002100630820002A
:10373200B100210064082000B200210065082000C9
:10374200B3006308303EB10098314A209B31F80142
:103752003130F9000030FA00FB0100308D3148258C
:103762009B316630F3000030F4000A30F5000A3075
:10377200F00020006308A6315A269B31003EA73193
:1037820028279B312000E4012830E500A531CA2515
:103792009B318831CF209B310800FB30200061062D
:1037A200031DD42BD52BE12B0130E4070230640238
:1037B200031CDC2BDD2BDE2BE401983194209B31A2
:1037C200503020006106031DE72BE82B052C64080E
:1037D200031DEC2BED2B022CA73140279B317108E6
:1037E2002000E6007008E5000030F6000030F70027
:1037F2006530F8000030F9000A30FA0098312620CE
:103802009B31A531D6259B31080098314A209C3145
:10381200210060082000B100210061082000B200F0
:10382200210062082000B300F801F80A3130F900E3
:103832000030FA00FB0100308D3148259C316530A3
:10384200F3000030F4000A30F5000030A7312827D9
:103852009C312000EF01F801F80A6730F9000030CE
:10386200FA00FB0102308D3148259C312000E40131
:10387200A531CA259C31983194209C310800200042
:10388200B600DB308600003087003730840000301D
:1038920085000530B50016001A00B50B4C2C330814
:1038A200803AB50080303502031D592C6430320253
:1038B200031C5C2C5D2C6E2C20003308F9003208AE
:1038C200F8003830FA000430FB0093310C239C31AD
:1038D20020003808B7002E30B80020003108F80068
:1038E2003730F9000030FA003408FB0036088D3119
:1038F20048259C31080098314A209C31A531CA25BF
:103902009C31F8011030F900AA30FA00FB010030B6
:103912008D3148259C31F801F80ADC30F900A930D4
:10392200FA00FB0100308D3148259C310230F8004D
:103932000B30F900AA30FA00FB0100308D31482526
:103942009C312000E301210044082000E80021000E
:1039520043082000E700210042082000E600210081
:1039620041082000E500210040082000E4009231D7
:1039720091229C31080000302000A3000030A200F8
:10398200C330A1005030A000A830AE006130AF00BB
:103992000030B0000030B1007C08F0007D08F1007A
:1039A200890D893B8909F200F3007C08F4007D0847
:1039B200F500890D893B8909F600F7009A31242226
:1039C2009C3170082000AE077108AF3D7208B03D0F
:1039D2007308B13D3108A7003008A6002F08A500E2
:1039E2002E08A400953195259C3120002108B300B2
:1039F2002008B2003308FD003208FC000800F5017F
:103A0200F31F042D052D0C2DF209F309F20A0319F7
:103A1200F30A0130F500F11F0F2D102D152DF009BD
:103A2200F109F00A0319F10A7008710403191A2D39
:103A32001B2D422D0130F400252D0130F035F10D02
:103A4200890B1F2D0130F407F11F282D292D1E2D62
:103A520071087302031D2F2D70087202031C322D90
:103A6200332D372D7008F2027108F33B0130F13625
:103A7200F00C890B382D0130F402031D412D422D2B
:103A8200292D75080319462D472D4C2DF209F309EE
:103A9200F20A0319F30A7308F1007208F000080031
:103AA2002000B6000130B7003308803AB5008030FC
:103AB2003502031D5E2D64303202031C612D622D1E
:103AC200742D0A30F0000030F10020003308F300BA
:103AD2003208F2009F3149279D3171082000B3005E
:103AE2007008B200B70120003308F9003208F8006C
:103AF2003830FA000430FB0093310C239D31200052
:103B020037080319852D862D922D3908B8002030EB
:103B12003806031D8D2D8E2D902D3030B8002E309D
:103B2200B9005730BB00BC013108F8003830F90049
:103B32000030FA003408FB0036088D3148259D31EB
:103B42000800200064080319A72DA82DBA2DF8013A
:103B52002930F900AA30FA0063080319B12DB32DF8
:103B62000130B42D0030FB0000308D3148259D31ED
:103B7200CB2DF8012D30F900AA30FA0063080319A1
:103B8200C32DC52D0130C62D0030FB0000308D3114
:103B920048259D310330F8000630F900AA30FA00BA
:103BA200200063030319D62DD82D0130D92D003002
:103BB200FB0000308D3148259D310330F800313053
:103BC200F900AA30FA000230200063060319EA2D38
:103BD200EC2D0130ED2D0030FB0007308D314825F2
:103BE2009D310800200064080319F82DF92D0B2ED1
:103BF200F8015A30F900A930FA0063080319022EBD
:103C0200042E0130052E0030FB0000308D31482596
:103C12009D311C2EF8016130F900A930FA006308C9
:103C22000319142E162E0130172E0030FB0000301F
:103C32008D3148259D310330F8000630F900AA3055
:103C4200FA00200063030319272E292E01302A2EA1
:103C52000030FB0000308D3148259D310330F800E3
:103C62003130F900AA30FA0002302000630603194D
:103C72003B2E3D2E01303E2E0030FB0007308D31B1
:103C820048259D310800FB3020006106031D4A2EA5
:103C92004B2E572E0130E30703306302031C522ED2
:103CA200532E542EE3019D31A2259E315030200027
:103CB2006106031D5D2E5E2E992E2830E1026308F7
:103CC200031D642E652E702E64080319692E6B2E57
:103CD20001306C2E0030E4009D31A2259E3120007F
:103CE2006303031D752E762E922E640803197A2E15
:103CF2007B2E7E2E2100DA14812EFD302100DA0582
:103D02007030F6000030F700DA30F8000030F900C9
:103D1200FA01FA0A983126209E31A531D6259E3124
:103D2200992E02306306031D972E982E992E8E2E01
:103D3200080020000D189E2E9F2EB12EFA3061022F
:103D42000318A42EA52EA72E0130E10750306106DC
:103D5200031DAC2EAD2ECA2E01302100B700CA2E93
:103D620021003708031DB62EB72EC62E200061088B
:103D72000319BC2EBD2EC62EFB3061020318C22EC3
:103D8200C32EC62EFB30E100C82E2000E101210027
:103D9200B70120008D18CE2ECF2EDB2E0130210050
:103DA200B60714303602031CD72ED82EDD2E013072
:103DB200B600DD2E2100B60120000D19E12EE22E03
:103DC200EE2E01302100B50714303502031CEA2E15
:103DD200EB2EF02E0130B500F02E2100B5010800C7
:103DE200210066082000B100210067082000B2000F
:103DF200210068082000B300C00167084007B40032
:103E02003408303EB1004008013EF8003130F9007C
:103E12000030FA00650834060319102F122F013002
:103E2200132F0030FB0000308D3148259E31353094
:103E3200F3000030F4000A30F5000A30F0002000F0
:103E42003408A6315A269E31003EA73128279E31DA
:103E52002000BF014008013EF8003730F900003071
:103E6200FA00650834060319372F392F01303A2F2B
:103E72000030FB0002308D3148259E310130200098
:103E8200C00703304002031C472F482FFE2E0800B4
:103E9200F501F11F4D2F4E2F552FF009F109F00AB0
:103EA2000319F10A0130F500F31F582F592F602F23
:103EB200F209F309F20A0319F30A0130F506F601D1
:103EC200F701700871040319672F682F952F0130CD
:103ED200F400722F0130F035F10D890B6C2F013097
:103EE200F407F11F752F762F6B2F0130F635F70D82
:103EF200890B772F71087302031D812F70087202DC
:103F0200031C842F852F8A2F7008F2027108F33B5D
:103F120076140130F136F00C890B8B2F0130F4024C
:103F2200031D942F952F762F75080319992F9A2F19
:103F32009F2FF609F709F60A0319F70A7708F10025
:103F42007608F0000800BC3086000030870053314C
:103F520000302000A3000030A2001030A100003089
:103F6200A00021005108F0005208F100890D893BA0
:103F72008909F200F3005508F4005608F500890D8E
:103F8200893B8909F600F7009A3124229F31730890
:103F92002000A7007208A6007108A5007008A400FE
:103FA200953195259F31403F20002007B500413FC4
:103FB200213DB6003608FD003508FC009C31BC24CA
:103FC2009F317D082000B8007C08B7003808803A8D
:103FD200B40080303402031DF02F02303702031880
:103FE200F32FF42FF72F2000B701B8012000380873
:103FF2002100BD00200037082100BC000800203449
:104002003034313432343334343435343634373472
:104012003834393461346234633464346534663438
:104022006734683469346A346B346C346D346E349A
:104032006F3470347134723473347434753476344A
:104042007734783479347A344134423443344434E2
:10405200453446344734483449344A344B344C347A
:104062004D344E344F34503451345234533454342A
:10407200553456345734583459345A343F34213431
:104082002F342B342D342334253424345F3400343C
:104B8000AE30A6319426A5310800AF30A631942668
:104B9000A5310800FF302000E1002100B701080026
:104BA000640080010131890BD12D0034D630200002
:104BB000DB00A930DC0099310D21A531080020006F
:104BC0006A08F2006908F100A6318026A531993102
:104BD0000D21A53108002000E501E701E301E40112
:104BE0009E31F126A531A531CA25A5310800003036
:104BF000F100F200A6318026A5312100C801A531BF
:104C0000D625A531080001302100B400B201B10160
:104C1000D701D801D90193318A23A631023021006E
:104C2000B100080030342E343034303400343034A5
:104C30003A34003430343A34003430343A340034C6
:104C4000203400342000B4003208B500B601310829
:104C5000F8003530F9000030FA003308FB00340862
:104C60008D314825A6310800F20064002300951814
:104C70003A2E3B2E352E7208F000F101700891009B
:104C8000710892003F3095051514130808002100A3
:104C90008D130630890B4A2E003221000D17063085
:104CA000890B502E003221008D170630890B562EAD
:104CB00000320800F200F101721C5F2E602E622E9D
:104CC0007008F1070310F00D0310F20C7208031DB9
:104CD0006A2E6B2E5C2E7108080098314A20A6318E
:104CE000F801B630F900A830FA00FB0100308D3130
:104CF0004825A6312000E601A531EB25A6310800A4
:104D0000F21F832E842E882E01302100D7008A2E98
:104D10002100D70172087F39D80071087F39D90086
:104D200093318A23A6310800F200A7315827A63113
:104D3000200062089B315E23A63180309B315E23C8
:104D4000A63172089B315E23A631A6314726A631D3
:104D5000080098314A20A631A531CA25A631200085
:104D6000E401E501E601E7010630E3006030E80018
:104D70000130E9009B312823A631080098314A20F0
:104D8000A631A531CA25A6312000E401E501E601DE
:104D9000E7010630E3005430E8000130E9009B31C0
:104DA0002823A631080001302100C800A731402780
:104DB000A63171082100CA007008C9000030F10056
:104DC000F200A6318026A631A531D625A6310800ED
:104DD00098314A20A631A531CA25A6312000E30129
:104DE00021005A18F42EF62E0130F72E0030200044
:104DF000E4009D31F325A631080098314A20A63100
:104E0000A531CA25A6312000E3012100DA18092FB7
:104E10000B2F01300C2F00302000E4009D31A22523
:104E2000A631080021000C1423000C1421008C145E
:104E300023008C1483302200970021009E171E0847
:104E40008F3920389E001E1103309E041D14080067
:104E5000F6007308F7003A2F770886008701760876
:104E6000A6313426A73181000130F5020130F60762
:104E70000130F7077508031D3E2F3F2F2C2F080028
:104E800021005808F200F3017208F300F2015908FA
:104E90007207F5000030733DF60057080319512FD3
:104EA000522F532FF6177608F1007508F00008000E
:104EB00021000D170630890B5B2F003221008D1762
:104EC0000630890B612F003221008D130630890BCB
:104ED000672F003221000D130630890B6D2F003231
:104EE00008007108F4007008F3006400842F063095
:104EF000F2003030890B7A2FF20B7A2F00326400E7
:104F00000130F3020030F43B73087404031D892F51
:104F10008A2F772F080098314A20A731A531CA255A
:104F2000A7312000E301A7314027A73171082000F5
:104F3000E5007008E400E6012100D701D801D9019D
:104F400093318A23A73189318321A7310800983111
:104F50004A20A7312000E301E40121004C08200091
:104F6000E60021004B082000E50021004E0820004B
:104F7000E80021004D082000E700A531CA25A7312F
:104F80009031D920A7310800043020005B0784004D
:104F90005C080318013E85001200CF001200CF0408
:104FA0000319D32FD42FE02F04305B0784005C0853
:104FB0000318013E8500013F8A00003F0A00A73127
:104FC0000800F401F501701CE62FE72FEB2F7208A3
:104FD000F4077308F53D0130F235F30D890BEC2F22
:104FE0000130F136F00C890BF12F70087104031DAC
:104FF000FA2FFB2FE32F7508F1007408F00008006A
:105000003234003464340034DC340034C2340134CB
:10501000E834033498340834303411340A3400341A
:10502000163400342F34003464340034DC3400345B
:10503000D6340134E8340334003401340234043407
:105040000834103420344034603470347F340034F9
:1050500001340234043408341034203440346034D1
:1050600070347F34203420345234653461346434F5
:1050700079342034203420340034203450345734F0
:10508000523420346C346F3477342034203400347C
:105090002034203442347234653461346B3420342B
:1050A0002034203400342034523475346E346E345D
:1050B00069346E34673420342034003477346134FA
:1050C00069347434203466342E3420344834463401
:1050D0000034203420342034203420342034203450
:1050E0002034203420340034413462346F34753439
:1050F00074342034203420342034203400345334A9
:1051000065347434753470342034203420342034C1
:1051100020340034433461346C3469346234723482
:105120006134743465342034003454346534733459
:10513000743420342034203420342034203400349B
:1051400053346C3465346534703420342034203466
:10515000203420340034543475346E3469346E3461
:105160006734203420342034203400344C346F34FD
:10517000613464342034543475346E3465342034EE
:105180000034533461347634653420345434753407
:105190006E346534203400344234793470346134F0
:1051A00073347334203420342034203400345234A7
:1051B000653473346534743420342034203420341E
:1051C0002034003444346534623475346734203418
:1051D000203420342034203400344434693473348F
:1051E00070346C3461347934203420342034003409
:1051F00059346534743441346E346F3474346834E3
:1052000065347234003454347734653461346B342B
:105210007334203462347934003473346C3465343C
:105220006534703469346E34673400342034423469
:10523000793470346134733473342034003464341A
:1052400065347334693467346E34653464340034DF
:105250004834613472346434773461347234653480
:1052600000344634693472346D34773461347234C6
:1052700065340034563430342E34363438342E34D9
:10528000333400344534583454342D345934413493
:10529000463400344134543455342D3431343034B0
:1052A0003034003462347934003446345734443472
:1052B0003D34003452346F347434613474346534A2
:1052C00000344E346F3472346D3461346C340034D5
:1052D0002034543475346E34653420340034323420
:1052E0004534303455344D344B34003400340034BC
:1052F00006341C34CE341B340034003496341B3452
:10530000243408340034003407341834E3341834B7
:10531000E234A834FD34263444341E348A34A834AC
:10532000A73427345A3405349534A8348B342734C1
:105330000A340C34ED34A834E8342634753410348F
:10534000A034A8343A34193421341634AB34A83498
:105350007C341C343A3407347434A834BF341A34DF
:1053600014341034B634A8346D3426340A34153469
:10537000C134A834003410340A341534D734A83476
:10538000F734253400340034CC34A834D3342634F4
:10539000003400347F34A834BE342634B0341134A1
:1053A00000340034A9342634B034113400340034CD
:1053B0000D341934A4340E345334743461347234DB
:1053C0007434003453346C346534653470340034D0
:1053D000443465346C3461347934003450346F347F
:1053E00069346E347434003450346F347734653437
:1053F0007234003444344734343453344E3400343B
:105400004E343734443444344334003453346134F8
:10541000763465340034533474346F34703400346B
:105420004134753474346F34003441345534543459
:105430004F3400343E344C342D34433400343E3445
:1054400043342D344C3400345234453456343D34D6
:10545000003420344F346E3400344F3466346634B4
:105460000034453473346334003450345734523488
:10547000003453345734523400344F346B340034D6
:0C54800043343D3400344C343D340034DF
:020000040001F9
:08000000FF3FFF3FFF3FFF3F00
:04000E00FC0FFF3FA5
:10E00000000000005300740061007200740075008D
:10E0100070002000000000002000200020002000F0
:10E020002000200020002000000000002000200030
:10E030002000200020002000200020000000000020
:10E0400020002000200020002000200020002000D0
:10E050000000000020002000200020002000200000
:10E0600020002000000000002000200020002000F0
:10E0700020002000200020000000000020002000E0
:10E0800020002000200020002000200000000000D0
:10E090002000200020002000200020002000200080
:10E0A00000000000200020002000200020002000B0
:10E0B00020002000000000002000200020002000A0
:10E0C0002000200020002000100027001E0000007B
:10E0D0000A0000001E0000008C0000007800000014
:0AE0E0000100000000000000000035
:00000001FF
