:040000008031112812
:100008007E1480312000911C0A280B280F2891109B
:1000180001302100C3077E100900803113282D30DC
:100028008400A4308500E3308600003087000C305F
:10003800A43103248031F5308400A63085002030B7
:100048008600013087002930A431032480315830DC
:100058008400003085000F30A331FD238031A030AB
:100068008400003085004330A331FD2380314930BE
:100078008400013085001430A331FD238031A03085
:100088008400013085001430A331FD2380317E10B7
:1000980020009231732A033021003B0603195528AA
:1000A8005628792B05303B06031D5B285C285D2804
:1000B800792B380803196128622865280130B802AD
:1000C800792B9E31082680319231F122803121002E
:1000D80039080319702871286A2B4508803A2000CE
:1000E800B90080303902031D7C280A3021004402FF
:1000F80003187F2880286A2B04302100BB00792B45
:100108004508803A2000B90080303902031D8F2845
:100118000A3021004402031C92289328792B0A30C4
:100128002100B9000230BB00E730AA000330AB0061
:10013800E730A8000330A900E730A6000330A70085
:100148002000D8012100B70102302100B800792B26
:100158004908803A2000B90021004708803A200069
:100168003902031DBA28210046084802031CBD288D
:10017800BE28C22805302100BB00792B2100470882
:10018800803A2000B90021002908803A200039026D
:10019800031DD1282100280846020318D428D52891
:1001A800DA2821004708A9004608A80021004708C6
:1001B800803A2000B90021002B08803A200039023B
:1001C800031DE92821002A0846020318EC28ED2817
:1001D800FA2821004708AB004608AA003708B600ED
:1001E800200058082100B5005F08B4000130210044
:1001F800B7070B3037020318022903292A291430BC
:10020800F0000030F1002908F3002808F2009D31C1
:10021800AD2580312100280870072000B900210091
:100228002908713D2000BA003A08803ABB00210035
:100238004708803A20003B02031D26292100460872
:1002480020003902031829292A298D292100B701FC
:1002580001302000D8071430F0000030F1002100F0
:100268002708F3002608F2009D31AD2580312100D2
:10027800260870072000B90021002708713D2000DA
:10028800BA003A08803ABB0021002908803A2000C9
:100298003B02031D532921002808200039020318B6
:1002A800562957296F2921005F03031D5C295D2901
:1002B80060291430B900792B0130DF00B701200024
:1002C800D801E7302100A8000330A900E730A600D4
:1002D8000330A700742921002908A7002808A600D0
:1002E800E730A8000330A9000B3020005802031C97
:1002F8007E297F298D29D801E7302100A800033005
:10030800A9005F03031D89298A298B295D290130EA
:10031800DF0021003708273E8400A8300318013E7B
:1003280085000008E000200058081C3E8400A83022
:100338000318013E850000082100E1009131F521F4
:100348008031A8283408DF003608273E8400A8300A
:100358000318013E85000008E00035081C3E8400B3
:10036800A8300318013E85000008E1003608273E42
:100378008400A8300318013E85000008A400350851
:100388001C3E8400A8300318013E85000008A10027
:1003980036080319D029D129EB293608263E8400CE
:1003A800A8300318013E850000082000B90021008C
:1003B8003608273E8400A8300318013E850000084F
:1003C8002000BA0039083A022100B300EC29B30131
:1003D8000A3036020318F129F2290C2A3608273E7A
:1003E8008400A8300318013E850000082000B900E9
:1003F80021003608283E8400A8300318013E8500F5
:1004080000082000BA0039083A022100B2000D2A7B
:10041800B20135080319112A122A2C2A35081B3E65
:100428008400A8300318013E850000082000B900A8
:10043800210035081C3E8400A8300318013E8500C1
:1004480000082000BA0039083A022100B1002D2A1C
:10045800B1010A3035020318322A332A4D2A3508E9
:100468001C3E8400A8300318013E850000082000C7
:10047800B900210035081D3E8400A8300318013E4C
:10048800850000082000BA0039083A022100B000AF
:100498004E2AB0010230F0000030F100330820008D
:1004A800B900BA013908F2003A08F3009D31AD25C8
:1004B800803170082100B3000230F0000030F100F4
:1004C80032082000B900BA013908F2003A08F300EE
:1004D8009D31AD25803170082100B2000230F00056
:1004E8000030F10031082000B900BA013908F200E3
:1004F8003A08F3009D31AD25803170082100B10024
:100508000230F0000030F10030082000B900BA01D4
:100518003908F2003A08F3009D31AD2580317008A2
:100528002100B00033082402A30024083207A500E4
:1005380031082102A00021083007A200E730AA00F4
:100548000330AB000130B70001302000D800210093
:100558002408E0002108E1009131F52180310230C2
:100568002100B8001E30B900792B4908803A2000D4
:10057800B90021004708803A20003902031DC72A24
:10058800210046084802031CCA2ACB2ACC2ABE28C6
:1005980021004708803A2000B90021002B08803A42
:1005A80020003902031DDB2A21002A08460203180D
:1005B800DE2ADF2AEA2A21004708AB004608AA00FB
:1005C8003708B600200058082100B500210037037D
:1005D800031DEF2AF02A012B240823060319F52A04
:1005E800F62AF82AB7013A2B250824060319FD2A0A
:1005F800FE2A012B0230B7003A2B3708031D052BC2
:10060800062B0D2B2508240603190B2B0C2B0D2B61
:10061800FE2A0130B70020005803031D142B152BA8
:10062800262B21002108200603191B2B1C2B1F2B0E
:100638002000D8013A2B220821060319242B252B48
:10064800262BFE2A20005808031D2B2B2C2B372B7A
:100658002100220821060319322B332B372B0230B5
:100668002000D8003A2B01302000D80021003703A1
:10067800031D3F2B402B572B20005803031D452BF0
:10068800462B572B21003608A33E86008701010818
:10069800E0003508A03E860087010108E10091319D
:1006A800F5218031BE2821003708A33E8600870146
:1006B8000108E00020005808A03E860087010108D4
:1006C8002100E100A2290330BB00792B2100390861
:1006D800003A031984280A3A0319AC281E3A031968
:1006E800A6290A3A0319B92A672B0800FB3020000B
:1006F8005906031D802B812B872B5A08013ADA00F3
:100708009F3129278331503020005906031D8D2B36
:100718008E2B032C2830D9025A08031D942B952BB5
:10072800FF2B02305B0203189A2B9B2BFF2B5B08D5
:10073800C300C401C335C40D5C30C5000030C60019
:100748004308450786004408463D8700403FD400DB
:10075800413FD5005508803AC30080304302031D4D
:10076800B72B643054020318BA2BBB2BC12B0530AE
:100778002000D4070030D53DC62B32302000D407E6
:100788000030D53D5B08031DCA2BCB2BDC2B55084D
:10079800803AC30080304302031DD42B65305402D5
:1007A800031CD72BD82BEE2B2000D401D501EE2B20
:1007B8005508803AC30083304302031DE52BE93016
:1007C8005402031CE82BE92BEE2B20005D08D50012
:1007D8005C08D40020005B355C3E86000030873D15
:1007E8005B350030873D5408C03F5508C13F9F31F5
:1007F80029278331032C883100208331E32D0230EF
:1008080020005B020318092C0A2C542C21005E08D6
:10081800803A2000C30080304302031D162C653047
:1008280021005D02031C192C1A2CDB2D2000650801
:1008380021005E06031D242C2000640821005D06AB
:10084800031D272C282C472C20005B35603E860092
:100858000030873D5B350030873D21005D08C03F93
:100868005E08C13FA6315C268331F801F80A493099
:10087800F900AA30FA00FB0180308D313825833128
:1008880002302000DB0703302000C4000830C3001A
:100898007730890B4D2CC30B4D2CC40B4D2CDB2D05
:1008A80021005E08803A2000C30080304302031D07
:1008B800602C053021005D020318632C642CDB2DAD
:1008C80001302000DB025B03031D6B2C6C2C732CA6
:1008D800A6315C2683319F3129278331DB2D5D08C2
:1008E8002100D40020005C082100D30020005F080C
:1008F8002100D60020005E082100D5005408FD0024
:100908005308FC009531462583317D082000D3002B
:100918007C08D20021005608FD005508FC009531DE
:10092800462583317D082000CA007C08C9005A305A
:1009380086000030870046315A3084000030850038
:100948000831403F0002A0000131413F003BA100B7
:10095800A201A11BA2032208A30052084902C30056
:1009680053084A3BC4004308C5004408C600003089
:10097800C61BFF30C700C8000C30C535C60DC70DF3
:10098800C80D890BC12C4808A7004708A6004608CF
:10099800A5004508A4009331752383312000210860
:1009A8002100DA00200020082100D90000302000B2
:1009B800A3000030A2001030A1000030A0002100E8
:1009C8005908F0005A08F100890D893B8909F2009D
:1009D800F30020006008F4006108F500890D893BE8
:1009E8008909F600F70098317B20833173082000CD
:1009F800A7007208A6007108A5007008A40093312A
:100A0800752383312000200852022100D7002000DE
:100A18002108533B2100D8006830F6000030F70069
:100A2800D330F8000030F9000230FA00A631382639
:100A380083316630F6000030F700D530F80000301A
:100A4800F9000230FA00A631382683317130F600F9
:100A58000030F700D730F8000030F9000230FA0013
:100A6800A631382683316430F6000030F700D930DB
:100A7800F8000030F9000230FA00A6313826833138
:100A88002100E21C482D492DFF2B5A08F90059086E
:100A9800F8004B30FA000730FB00913177218331A1
:100AA8000230F8005230F900AA30FA00FB01003099
:100AB8008D31382583310230F8004B30F900003091
:100AC800FA00FB0102308D313825833121005808A6
:100AD800F9005708F8004B30FA000730FB00913155
:100AE800772183310330F8005530F900AA30FA0035
:100AF800FB0100308D31382583310330F8004B304D
:100B0800F9000030FA00FB0102308D3138258331BD
:100B180021005408F9005308F8004B30FA00073058
:100B2800FB00913177218331F8014130F900AA3077
:100B3800FA00FB0100308D3138258331F8014B3044
:100B4800F9000030FA00FB0103308D31382583317C
:100B580021005608F9005508F8004B30FA00073014
:100B6800FB00913177218331F801F80A4530F9000B
:100B7800AA30FA00FB0100308D3138258331F801A5
:100B8800F80A4B30F9000030FA00FB0103308D31D0
:100B98003825833129302000C4009630C3007F30C7
:100BA800890BD42DC30BD42DC40BD42DFF2B2100BE
:100BB8005E082000E50021005D082000E400080030
:100BC80000340034003400340034003400345F341E
:100BD800003400340034073400340734003414344B
:100BE8007F3414347F34143424342A347F342A3440
:100BF80012342334133408346434623436344934B8
:100C0800553422345034003405340334003400346D
:100C180000341C342234413400340034413422344A
:100C28001C34003408342A341C342A340834083478
:100C380008343E3408340834003450343034003436
:100C480000340834083408340834083400343034A4
:100C5800303400340034203410340834043402347E
:100C68003E345134493445343E34003442347F34C0
:100C780040340034423461345134493446342134E8
:100C8800413445344B3431341834143412347F34FD
:100C98001034273445344534453439343C344A34E7
:100CA8004934493430340134713409340534033457
:100CB80036344934493449343634063449344934AD
:100CC80029341E34003436343634003400340034C9
:100CD80056343634003400340034083414342234A2
:100CE8004134143414341434143414344134223454
:100CF80014340834003402340134513409340634CD
:100D080032344934793441343E347E341134113428
:100D180011347E347F3449344934493436343E34CE
:100D280041344134413422347F3441344134223413
:100D38001C347F3449344934493441347F340934CC
:100D48000934013401343E344134413451343234AD
:100D58007F340834083408347F34003441347F3415
:100D6800413400342034403441343F3401347F343A
:100D780008341434223441347F344034403440340D
:100D880040347F340234043402347F347F340434F2
:100D9800083410347F343E344134413441343E34D5
:100DA8007F3409340934093406343E34413451342B
:100DB80021345E347F3409341934293446344634B6
:100DC8004934493449343134013401347F340134ED
:100DD80001343F344034403440343F341F342034ED
:100DE800403420341F347F342034183420347F3486
:100DF80063341434083414346334033404347834D6
:100E080004340334613451344934453443340034B0
:100E180000347F344134413402340434083410340B
:100E28002034413441347F340034003404340234F3
:100E380001340234043440344034403440344034C3
:100E4800003401340234043400342034543454342B
:100E5800543478347F34483444344434383438345F
:100E680044344434443420343834443444344834E6
:100E78007F343834543454345434183408347E3479
:100E880009340134023408341434543454343C34AE
:100E98007F340834043404347834003444347D34E2
:100EA800403400342034403444343D340034003479
:100EB8007F34103428344434003441347F3440348F
:100EC80000347C3404341834043478347C340834E2
:100ED80004340434783438344434443444343834AE
:100EE8007C3414341434143408340834143414346A
:100EF80018347C347C3408340434043408344834DA
:100F0800543454345434203404343F344434403456
:100F180020343C344034403420347C341C34203475
:100F2800403420341C343C344034303440343C3475
:100F3800443428341034283444340C345034503475
:100F480050343C344434643454344C3444340034E1
:100F58000834363441340034003400347F340034EB
:100F6800003400344134363408340034083408344A
:100F78002A341C34083408341C342A34083408341D
:100F88002000B6002C3086000130870037308400FE
:100F9800003085000530B50016001A00B50BD02FBB
:100FA8003308803AB50080303502031DDD2F6430E8
:100FB8003202031CE02FE12FF22F20003308F90042
:100FC8003208F8003830FA000430FB0091317721FC
:100FD800873120003808B7002E30B80020003108CB
:100FE800F8003730F9000030FA003408FB00360802
:100FF8008D31382587310800E0302100AC00A93058
:10100800AD00A73148278831080001302000DA07F1
:101018000030DB3D01305B02F43003195A02031C37
:10102800162817281B288831002088319528FB307E
:101038005906031D202821285128DA01DB015E0802
:101048005C02C400462801302000DC074E285E08F8
:10105800033EC100003003180130C2004208803A44
:10106800C30080304302031D3B280A3041020318A5
:101078003E283F28272801302000DE072728DE01E8
:10108800DC014E284408003A03192728013A0319BD
:101098002B2843289D31552588315030200059068A
:1010A800031D5728582895285D03031D5C285D28D3
:1010B8007C285C08031D612862286828803021008C
:1010C800AC00A930AD006F285C08DA00863021003A
:1010D800AC00A930AD0002302C0784002D0803189D
:1010E800013E8500013F8A00003F0A0088319528AB
:1010F8004530F3000030F4000A30F5000A30F00003
:101108005C08A4318D248831003EA531C025883182
:1011180020004608F2004508F100A431B3248831C4
:1011280017280800FB3020005906031D9C289D281D
:10113800A9280130DA0705305A02031CA428A5287B
:10114800A628DA019031FC20883150302000590659
:10115800031DAF28B0284E292830D9025A08031D8C
:10116800B628B728C3285F03031DBB28BC28BE28A0
:10117800DF01C0280130DF009031FC2088312000D9
:101188005A03031DC828C928E2280530DD070030A6
:10119800DE3D5E08803ABD0080303D02031DD62842
:1011A800C9305D02031CD928DA28DF2878302000EE
:1011B800DD000030DE009031FC2088310230200054
:1011C8005A06031DE828E92802290530DB07003004
:1011D800DC3D5C08803ABD0080303D02031DF628E6
:1011E80097305B02031CF928FA28FF286430200096
:1011F800DB000030DC009031FC2088310330200017
:101208005A06031D0829092947295F082100CC002F
:1012180020005E082100CB0020005D082100CA00E4
:1012280020005C082100C90020005B082100C800DC
:101238006E30F6000030F700C830F8000030F900D2
:101248000230FA00A631382688316C30F6000030BA
:10125800F700CA30F8000030F9000230FA00A63171
:10126800382688317430F6000030F700CC30F800AA
:101278000030F900FA01FA0AA63138268831883197
:10128800002088314E2904305A06031D4C294D2967
:101298004E294329080000302000B7000030B6006E
:1012A8000030B5000030B4000030BB000030BA0098
:1012B8000030B9000030B800BD01BC010130BD07E5
:1012C8003D35493E860001308700403FAE00413F32
:1012D800AF003C35493E8600013087002E08C03FEC
:1012E8002F08C13F2E08B0002F08B1000030B11BF5
:1012F800FF30B200B3003008B4073108B53D3208FA
:10130800B63D3308B73D3D35A03E86000130870025
:10131800403FAE00413FAF003C35A03E8600013063
:1013280087002E08C03F2F08C13F2E08B0002F08A5
:10133800B1000030B11BFF30B200B3003008B8076D
:101348003108B93D3208BA3D3308BB3D0130BC070E
:1013580009303C02031CB129B229622901309831B5
:101368001720893120003D35493E8600013087002D
:101378007008C03F7108C13F7008AE007108AF0027
:101388000030AF1BFF30B000B1002E08B4072F08A3
:10139800B53D3008B63D3108B73D003098311720CB
:1013A800893120003D35A03E860001308700700855
:1013B800C03F7108C13F7008AE007108AF0000302F
:1013C800AF1BFF30B000B1002E08B8072F08B93D99
:1013D8003008BA3D3108BB3D0030A3000030A20000
:1013E8000030A1000A30A0003708A7003608A60080
:1013F8003508A5003408A4009331752389312000ED
:1014080021082100DE00200020082100DD00003036
:101418002000A3000030A2000030A1000A30A00084
:101428003B08A7003A08A6003908A5003808A40018
:10143800933175238931200021082100DC00200028
:1014480020082100DB000800FB3020005906031D9E
:101458002E2A2F2A3B2A0130DA0705305A02031CAC
:10146800362A372A382ADA019431A2248A315030B0
:1014780020005906031D412A422A012B2830D9028F
:101488005A08031D482A492A7F2A5B085C04031D61
:101498004E2A4F2A542A0530DB000030DC006C2A23
:1014A8005C08803ABA0080303A02031D5D2A3C305D
:1014B8005B02031C602A612A672A0F302000DB07C1
:1014C8000030DC3D6C2A05302000DB070030DC3DB5
:1014D8005C08803ABA0080303A02031D752AB5309C
:1014E8005B02031C782A792A7C2A2000DB01DC01B4
:1014F8009431A2248A3120005A03031D842A852AA4
:101508008A2A0130DD069431A2248A310230200073
:101518005A06031D902A912A962A0130DE06943134
:10152800A2248A31033020005A06031D9C2A9D2AD2
:10153800FA2A5C082100CF0020005B082100CE00B9
:101548004F08803A2000BA0080303A02031DAF2AC3
:10155800013021004E020318B22AB42A0130B52AFC
:1015680000302100CD0020005D080319BC2ABD2AE7
:10157800C02A21006215C32AFB302100E2052000A1
:101588005E080319C82AC92ACC2A2100E215CF2AE5
:10159800F7302100E2056A30F6000030F700CE305F
:1015A800F8000030F9000230FA00A63138268A31F6
:1015B8007330F6000030F700CD30F8000030F90045
:1015C800FA01FA0AA63138268A317030F60000305E
:1015D800F700E230F8000030F900FA01FA0AA63103
:1015E80038268A31883100208A31012B04305A0686
:1015F800031DFF2A002B012BF62A080002302000C9
:10160800C6000330C700B101210045082000B3001F
:10161800210044082000B200B40104309B3161234A
:101628008B312000B101B10A210047082000B30026
:10163800210046082000B200B40104308731C427D5
:101648008B3121005F0803192A2B2B2B302B0330F9
:101658002000C6000230C70021005003031D352BAF
:10166800362B432B0330F8000B30F900A930FA0071
:10167800FB01FB0A00308D3138258B31CF2BE21C62
:10168800462B472B8F2B5E08F9005D08F8003F308A
:10169800FA000730FB00913177218B312000460892
:1016A800F8005230F900A930FA00FB0100308D3102
:1016B80038258B3120004608F8003F30F90000300B
:1016C800FA00FB0104308D3138258B3121005C088C
:1016D800F9005B08F8003F30FA000730FB00913151
:1016E80077218B3120004708F8002830F900AA300C
:1016F800FA00FB0100308D3138258B312000470876
:10170800F8003F30F9000030FA00FB0104308D3159
:1017180038258B31CF2B20004608F8004C30F900D3
:10172800AA30FA00FB0100308D3138258B313F306B
:101738002000A3000730A400A73175278B312000B3
:101748004608F8003F30F9000030FA00FB0102308B
:101758008D3138258B3120004708F8004F30F900CB
:10176800AA30FA00FB0100308D3138258B313F302B
:101778002000A3000730A400A731A3278B31200045
:101788004708F8003F30F9000030FA00FB0102304A
:101798008D3138258B3121004C03031DD42BD52BDB
:1017A800F92B50030319D92BDA2BF92B1930200008
:1017B800BD00AA30BE00C8014808B10048083D076E
:1017C80084003E080318013E85000008B200B301FA
:1017D8000930A43155248B3101302000C80704306A
:1017E8004802031CF82BF92BE02B080001302000DD
:1017F800DD070A305D06031D022C032C282CDD01B1
:101808009E3108268B319231F1228B312000B101B3
:10181800210047082000B300210046082000B2003C
:10182800B40100308731C4278B312000B101210079
:1018380045082000B300210044082000B200B4018C
:1018480006309B3161238B31FB3020005906031D84
:101858002E2C2F2C3B2C0130DA0704305A02031CA3
:10186800362C372C382CDA0197314A278B315030F7
:1018780020005906031D412C422CB72C2830D902D0
:1018880021005F08031D492C4A2C502C20005A08BF
:1018980003194F2C502C5C2C21005F080319552C80
:1018A800562C682C20005A03031D5B2C5C2C682CDA
:1018B80021006008031D612C622C652C0130E000BA
:1018C800682C60357F39E00021005F08031D6D2C0E
:1018D8006E2C742C20005A030319732C742C802C42
:1018E80021005F080319792C7A2C8C2C20005A08C7
:1018F800031D7F2C802C8C2C21006108031D852C56
:10190800862C892C0130E1008C2C61357F39E1006F
:10191800023020005A06031D922C932CA02C210083
:101928005F08031D982C992C9C2C0130DF009D2CFE
:10193800DF01FF302000D90003305A06031DA52C13
:10194800A62CB12C5C08F2005B08F100A431B3248A
:101958008B31883100208B31372D97314A278B31D5
:101968009131F5218B312000BD0121005F08031D55
:10197800BE2CBF2CC52C20005A080319C42CC52C1A
:10198800D12C21005F080319CA2CCB2CF22C200083
:101998005A03031DD02CD12CF22C21003C03031D2B
:1019A800D62CD72CE12C60080319DB2CDC2CDE2C80
:1019B8000130E00201302000BD0021003D03031D7D
:1019C800E62CE72CF22C7F3060020318EC2CED2C6F
:1019D800EF2C0130E00701302000BD0021005F0836
:1019E800031DF72CF82CFE2C20005A030319FD2C9C
:1019F800FE2C0A2D21005F080319032D042D2B2D21
:101A080020005A08031D092D0A2D2B2D21003C0307
:101A1800031D0F2D102D1A2D61080319142D152DD6
:101A2800172D0130E10201302000BD0021003D03E7
:101A3800031D1F2D202D2B2D7F3061020318252D0E
:101A4800262D282D0130E10701302000BD0020009F
:101A58003D080319302D312D372D9131F5218B316A
:101A680097314A278B3108002000A4007B0803190E
:101A78003E2D3F2D422DFF30AE00432DAE0178356F
:101A8800A50080302406031D4A2D4B2D7B2DA9016E
:101A98007A08AD007908AC00572D0130A90701304C
:101AA800AC070030AD3D2C0884002D0885001200DD
:101AB800031D5F2D602D512D0C30F0002908A43135
:101AC8008D248D312000A9000230F0000030F10093
:101AD8008030A00029082002F200F301031CF30360
:101AE8009D31AD258D3170082000A800832D0C3064
:101AF800F0002408A4318D248D312000A800280886
:101B0800F2002508A731D1278D317A082000AD00D1
:101B18007908AC00002E2C0884002D0885000008E8
:101B2800E03EF000FF3003180030F1000530F2000D
:101B38000030F300A531FA258D3171082000A70087
:101B48007008A600AA01E430A0008530A1002A0888
:101B58002007A2000030213DA300220826078400A8
:101B68002308273D85000008B000AF13B01DBD2D28
:101B7800AF1720002F13301DC22D2F172000AF12D2
:101B8800301DC72DAF1620002F12B01CCC2D2F16DC
:101B98002000AF11B01CD12DAF1520002F11301C23
:101BA800D62D2F152000AF10301CDB2DAF142000D0
:101BB8002F102F082E06AF002F089931B5218D312F
:101BC80020002F089931B5218D3101302000AA0756
:101BD80005302A02031CF12DF22DA72D2E0899316C
:101BE800B5218D3120002E089931B5218D31013074
:101BF8002000AC070030AD3D2C0884002D0885007E
:101C08001200031D082E092E8F2D2808F200250822
:101C1800013EA731D1278D317A082000AD0079081F
:101C2800AC00872E2C0884002D0885000008E03EB3
:101C3800F000FF3003180030F1000530F2000030EA
:101C4800F300A531FA258D3171082000A70070082E
:101C5800A600AB01E430A0008530A1002B082007C6
:101C6800A2000030213DA300220826078400230893
:101C7800273D85000008B000AF132F13301F452EF5
:101C88002F172000AF12301F4A2EAF1620002F1238
:101C9800B01E4F2E2F162000AF11B01E542EAF15B8
:101CA80020002F11301E592E2F152000AF10301E86
:101CB8005E2EAF1420002F10B01D632E2F142000AD
:101CC8002F082E06AF002F089931B5218D3120003D
:101CD8002F089931B5218D3101302000AB0705302F
:101CE8002B02031C782E792E2E2E2E089931B52121
:101CF8008D3120002E089931B5218D310130200019
:101D0800AC070030AD3D2C0884002D08850012007A
:101D1800031D8F2E902E162EA4317A248D310800A3
:101D28009E3108268E319231F1228E312100621DBA
:101D38009E2E9F2ECD2E4508803A2000C900803067
:101D48004902031DAA2E053021004402031CAD2EB2
:101D5800AE2ECD2E21004D03031DB32EB42ECD2E55
:101D680020005E08803AC90021004F08803A200010
:101D78004902031DC32E21004E0820005D02031CEA
:101D8800C62EC72ECA2EA43109248E312000DD01AB
:101D9800DE0121004D03031DD22ED32E242F500324
:101DA8000319D72ED82E242F20005E08803AC900A8
:101DB80021004F08803A20004902031DE72E210028
:101DC8004E0820005D020318EA2EEB2E162F013074
:101DD8002000DF0764305F06031DF32EF42E242F46
:101DE800DF010130DD070030DE3D21004F08200013
:101DF8005E06031D032F21004E0820005D06031D0B
:101E0800062F072F242FA6315C268E312100E21DD4
:101E18000E2F0F2F242F0030F100F200A431B3242D
:101E28008E31242F01302000DF0703305F02031CAE
:101E38001E2F1F2F242FDF01903120208E31242FB9
:101E480020005E08803AC90021004F08803A20002F
:101E58004902031D332F21004E0820005D02031C98
:101E6800362F372F3D2F21004D0303193C2F3D2FCF
:101E7800F62F01302000DA070A305A06031D452FD5
:101E8800462F692FDA0121004508803A2000C90051
:101E980080304902031D532F0130210044020318EA
:101EA800562F572F5E2F20005B085C0403195D2F07
:101EB8005E2F692F210045082000DC00210044081E
:101EC8002000DB008B3102238E3121004C03031DDF
:101ED8006E2F6F2FA72F50030319732F742FA72F5F
:101EE8004508803A2000C90080304902031D7F2F31
:101EF800013021004402031C822F832FA72F2100C9
:101F08004708803A2000C90021004B08803A200089
:101F18004902031D922F21004A084602031C952FEF
:101F2800962FA72F8C302100AC00A930AD000230CD
:101F38002C0784002D080318013E8500013F8A0004
:101F4800003F0A008F31FB3020005906031DAD2FDA
:101F5800AE2FCE2F21005003031DB32FB42FBD2F5A
:101F6800D0015208F2005108F100A431B3248E3197
:101F7800C12F8C30AC00A930AD00023021002C07F5
:101F880084002D080318013E8500013F8A00003FA8
:101F98000A008F31503020005906031DD42FD52F49
:101FA800FF2F21005003031DDA2FDB2FE42FD00170
:101FB8005208F2005108F100A431B3248E31E82F01
:101FC800DA30AC00A930AD00023021002C078400C3
:101FD8002D080318013E8500013F8A00003F0A00D2
:101FE8008F31FF2F20005903031DFB2FFC2FFF2FDC
:081FF800A43109248E31080018
:10200200043021002C0784002D080318013E8500AE
:1020120012002000D6001200D6040319112812283B
:102022001F28043021002C0784002D080318013ECC
:102032008500013F8A00003F0A009031080021001C
:102042002F08FB002E08FA006E08803A7F3E031C20
:102052002B282C285D28FC01F2017C087A079C3190
:1020620054249031F201F20A7C087A07083E9C312E
:10207200542490310130FC0704307C02031C4228B6
:1020820043282D2804302100AE070030AF3D2F0831
:10209200803AF90080307902031D512878302E02EF
:1020A200031C542855288C2878302100AE000030BB
:1020B200AF00FC30EE008C28FD01F2017D087A02AF
:1020C200073E9C3154249031F201F20A7D087A02D3
:1020D200FF3E9C31542490310130FD0704307D02D3
:1020E200031C742875285E28FC302100AE07FF30DF
:1020F200AF3D2F08803AF90080307902031D832812
:1021020001302E020318862887288C282100AE0170
:10211200AF010430EE00080001302000DD0700307E
:10212200DE3D01305E02F43003195D02031C9A2881
:102132009B289F28883100209031FB28FB305906CC
:10214200031DA428A528D828DD01DE015C085B0256
:10215200B900CA2801302000DB07D5285C08043EFC
:10216200B600003003180130B7003708803AB800D3
:1021720080303802031DBF285A0836020318C228CD
:10218200C328AB2801302000DC07AB28DC01DB01CF
:10219200D5283908003A0319AB28013A0319AF28A8
:1021A200033A0319AB28C72899317F219031503067
:1021B20020005906031DDE28DF28FB285B08B60035
:1021C200B701B635B70D36085F0786003708603DA0
:1021D2008700403F2100AC00413FAD0002302C0798
:1021E20084002D080318013E8500013F8A00003F4C
:1021F2000A009031080020005A08BC005F03031D4A
:10220200032904291629F8012D30F900AA30FA0011
:102212003C0803190D290F29013010290030FB0059
:1022220007308D31382590312729F8013130F900F6
:10223200AA30FA003C0803191F292129013022295A
:102242000030FB0007308D31382590312000B1017C
:10225200B10A5E08B3005D08B2003C0303193229DB
:102262003429013035290030B40006308731C427C3
:10227200903102302000B1005C08B3005B08B2006C
:1022820002303C0603194629482901304929003009
:10229200B40006308731C42790310330F8000A3089
:1022A200F900AA30FA00033020003C0603195A292B
:1022B2005C2901305D290030FB0000308D3138256A
:1022C20090310330F8003530F900AA30FA000430BA
:1022D20020003C0603196E29702901307129003053
:1022E200FB0007308D313825903108002000A00115
:1022F20002307B0203187E297F298029F4297B087A
:10230200FF3EA1007A082107A20022088600870169
:102312008101F91F8D298E2995290130A000F80924
:10232200F909F80A0319F90A0130A1020130A202DF
:102332007908803AFC0080307C02031DA22901301A
:102342007802031CA529A629C82920002208860094
:1023520087010A30F0000030F1007908F3007808B4
:10236200F2009831492091317008303E81000A30E4
:10237200F0000030F1007908F3007808F2009D3196
:10238200AD2591317108F9007008F800EE297B083B
:10239200FE3EFC00FF3003180030FD002000210843
:1023A2007C067D04031DD629D729DD292208860053
:1023B200870130308100EE2920080319E129E22942
:1023C200E9292208860087012D308100A001EE292B
:1023D2002208860087012030810020002108031D89
:1023E200F329F4299529080021006108F0007018EA
:1023F200FB29FE2922008D15002A22008D11F018DA
:10240200032A062A22000C15082A22000C11701930
:102412000B2A0E2A22000D16102A22000D12F01984
:10242200132A162A22008C15182A22008C11701ADF
:102432001B2A1E2A22008D16202A22008D12F01A33
:10244200232A262A22008C16282A22008C12701B8C
:102452002B2A2E2A22000C16302A22000C122100CE
:102462006008F0007018362A392A22008E173B2A9B
:1024720022008E13F0183E2A412A22008E15432A8A
:1024820022008E117019462A492A22000E174B2A61
:1024920022000E13F0194E2A512A22000E15532A39
:1024A20022000E11701A562A592A22008E165B2A11
:1024B20022008E12F01A5E2A612A22008E14632AEA
:1024C20022008E10701B662A692A22000E166B2AC1
:1024D20022000E1221005F0C2200031C0E100318B2
:1024E2000E14080099314A2192319F31942792317A
:1024F200A43139249231983101209231F430F00024
:102502000130F100A5318A259231210062188A2A10
:102512008C2A01308D2A0030F70078309431012462
:102522009231F8014730F900A930FA00FB018030FE
:102532008D3138259231F801F80A3F30F900A9307F
:10254200FA00FB0180308D31382592310230F800DB
:102552003730F900A930FA00FB0180308D3138257F
:102562009231DC30F0000530F100A5318A2592313C
:10257200A6315C2692318831002092315D30F30021
:102582000130F4000A30F5000030A531C025923147
:1025920022005E08F2005D08F100A431B3249231FA
:1025A2002100420843060319D72AD82ADF2A01301C
:1025B200C2070130C10789314F2192310A3021000F
:1025C2004106031DE52AE62AD12AC1019C31FE24D7
:1025D20092319031012092316400D12A8031112848
:1025E2002000AE01AF0121005E08803AFC0080307D
:1025F2007C02031DFE2A64305D02031C012B022BA8
:102602006C2B21005C08803AFC005E08803A7C0258
:10261200031D0D2B5D085B020318102B112B672B7A
:10262200C4308600003087005731C4308400003047
:1026320085001931403F00022000A0000131413FD6
:10264200003BA100A201A11BA2032208A300C430E7
:102652008600003087005731C43084000030850086
:102662001931403F0007F0000131413F003DF100C8
:10267200F201F11BF2037208F3000030F7000030A0
:10268200F6000030F5006430F40098317B2092317E
:1026920073082000A7007208A6007108A500700840
:1026A200A40093317523923120002108AF00200845
:1026B200AE002F08803AFC0083307C02031D632B9E
:1026C200E8302E02031C662B672B6C2BE7302000B0
:1026D200AE000330AF0020002F082100C700200009
:1026E2002E082100C60008002000A901A31F7A2B92
:1026F2007B2B882BA009A109A209A309A00A03190F
:10270200A10A0319A20A0319A30A0130A900A71FEB
:102712008B2B8C2B992BA409A509A609A709A40A1E
:102722000319A50A0319A60A0319A70A0130A90663
:102732000030AD000030AC000030AB000030AA0029
:1027420023082204210420040319A82BA92BE82B17
:102752000130A800B52B0130A035A10DA20DA30DAB
:10276200890BAD2B0130A807A31FB82BB92BAC2BBB
:102772000130AA35AB0DAC0DAD0D890BBA2B230878
:102782002702031DCE2B22082602031DCE2B210871
:102792002502031DCE2B20082402031CD12BD22B91
:1027A200DB2B2008A4022108A53B2208A63B230814
:1027B200A73B2A140130A336A20CA10CA00C890B52
:1027C200DC2B0130A802031DE72BE82BB92B2908CB
:1027D2000319EC2BED2BF82BAA09AB09AC09AD09B7
:1027E200AA0A0319AB0A0319AC0A0319AD0A2D0888
:1027F200A3002C08A2002B08A1002A08A0000800B0
:10280200F80078082100C0007708BF000D178D1767
:1028120022000D138D130630890B0D2C0032A531C9
:1028220071259431210040089931B521943100304D
:102832009931B5219431AE309931B5219431D530E9
:102842009931B521943180309931B5219431A83034
:102852009931B52194313F309931B5219431D3303A
:102862009931B521943100309931B52194314030FC
:102872009931B52194318D309931B521943114308B
:102882009931B521943181309931B5219431FF309C
:102892009931B5219431D9309931B5219431F13042
:1028A2009931B521943120309931B52194310230DA
:1028B2009931B521943121309931B52194310030CB
:1028C2009931B52194317F309931B52194312E302F
:1028D2009931B521943121003F03031D712C722CD3
:1028E2007B2CA0309931B5219431C0309931B5217A
:1028F2009431832CA1309931B5219431C83099316A
:10290200B5219431DA309931B521943112309931AF
:10291200B5219431DB309931B52194314030993170
:10292200B5219431A4309931B5219431A630993131
:10293200B5219431A4317A249431A6315C269431A4
:10294200080020005A08B9005B085C04031DAA2C89
:10295200AB2CBD2CF8013130F900AA30FA0039084D
:102962000319B42CB62C0130B72C0030FB00073011
:102972008D3138259431DA2C5C08F9005B08F800B7
:102982003130FA000430FB00913177219431F801A3
:102992003130F9000030FA00200039080319D22C36
:1029A200D42C0130D52C0030FB0007308D31382576
:1029B200943120005D08031DDF2CE02CE52C5830FB
:1029C200B500AA30B600E92C5A30B500AA30B600DC
:1029D200F801F80A3608FA003508F9003903031934
:1029E200F32CF52C0130F62C0030FB0009308D3130
:1029F2003825943120005E08031D002D012D062D7F
:102A02005830B700AA30B8000A2D5A30B700AA30A1
:102A1200B8000230F8003808FA003708F90002302E
:102A220039060319152D172D0130182D0030FB0022
:102A320009308D31382594310330F8000A30F9001D
:102A4200AA30FA000330200039060319292D2B2D54
:102A520001302C2D0030FB0000308D3138259431AF
:102A62000330F8003530F900AA30FA0004302000B3
:102A7200390603193D2D3F2D0130402D0030FB005A
:102A820007308D313825943108007C08F0007D082C
:102A9200F100890D893B8909F200F3000030F7004B
:102AA2000030F600C330F5005030F40098317B203E
:102AB200953173082000B9007208B8007108B70098
:102AC2007008B6000030A3000030A2000030A10060
:102AD2000230A0003908A7003808A6003708A50070
:102AE2003608A40093317523953120002308BD00D8
:102AF2002208BC002108BB002008BA000030C10037
:102B02000030C0000030BF000030BE00D42D3D08B0
:102B1200C1003C08C0003B08BF003A08BE004108A3
:102B2200A3004008A2003F08A1003E08A000390807
:102B3200A7003808A6003708A5003608A40093317C
:102B420075239531200020083E07AE0021083F3D45
:102B5200AF002208403DB0002308413DB1003108DA
:102B6200B5003008B4002F08B3002E08B2000030C0
:102B7200A3000030A2000030A1000230A0003508FE
:102B8200A7003408A6003308A5003208A400933138
:102B92007523953120002308BD002208BC002108BE
:102BA200BB002008BA0041083D06031DE22D400883
:102BB2003C06031DE22D3F083B06031DE22D3E08A5
:102BC2003A06031DE52DE62D882D3B08FD003A0847
:102BD200FC00080020005908031DF02DF12DF32DF3
:102BE2002830DC00FB305906031DF82DF92D052E87
:102BF2000130DB070A305B02031C002E012E022E7D
:102C0200DB01963196269531503020005906031D7E
:102C12000B2E0C2E952E5C08D9020B305C02031C85
:102C2200132E142E162E0530DC0208305B02031818
:102C32001B2E1C2E5E2E5F30BA000030BB005B08DC
:102C42003A07860000303B3D87000108BC00BD0109
:102C52002C2E0130BD073D08003E8400A030031831
:102C6200013E850000083C060319382E392E3F2EFE
:102C720049303D02031C3E2E3F2E2A2E0130BD0755
:102C820048303D02031C462E472E482EBD015F30C0
:102C9200BA000030BB005B083A07860000303B3DBB
:102CA20087003D08003E8400A0300318013E8500E5
:102CB20000088100963196269531083020005B0687
:102CC200031D642E652E8E2EA5315925953171086E
:102CD2002000DE007008DD005A08BA00BB013A0885
:102CE200F0003B08F1000A30F2000030F300A53199
:102CF200FA2595317008003EF6000030713DF7006C
:102D02005D30F8000030F9000A30FA00A6313826AA
:102D12009531883100209531952E09305B06031DCF
:102D2200932E942E952E8A2E08002000B901B1010F
:102D32005F30FC000030FD0039087C07860000305F
:102D42007D3D87000108B2005B0839060319AA2EEF
:102D5200AC2E0130AD2E0030B3003908023EA43152
:102D62005524963101302000B90708303902031C7E
:102D7200BB2EBC2E982E08305B020318C12EC22E29
:102D8200162F5F30FC000030FD005B087C078600D8
:102D920000307D3D87000108B700B901D22E013015
:102DA200B9073908003E8400A0300318013E8500AF
:102DB200000837060319DE2EDF2EE52E49303902D0
:102DC200031CE42EE52ED02EB101B10A3708B20061
:102DD200B301B30A0230A4315524963101302000E8
:102DE200B8000130B90748303902031CF92EFA2E17
:102DF200FB2EB901B101B10A3908003E8400A030AE
:102E02000318013E85000008B200B3013808023EF3
:102E1200A4315524963101302000B8070830380219
:102E2200031C142F152FF22E212FF801F80A5E3001
:102E3200F900A830FA00FB0100308D3138259631B7
:102E42000330F8000A30F900AA30FA0008302000F6
:102E52005B0603192D2F2F2F0130302F0030FB007E
:102E620000308D31382596310330F8003530F900C5
:102E7200AA30FA00093020005B060319412F432FC4
:102E82000130442F0030FB0007308D313825963158
:102E9200080020005A08BC000130BA000230BB0012
:102EA20021005F080319562F572F5C2F0230200094
:102EB200BA000130BB0020003A08F8004C30F9009B
:102EC200AA30FA00FB0100308D31382597313330BA
:102ED2002000A3000730A400A731752797312000F6
:102EE2003A08F8003330F9000030FA003A08FF3EA1
:102EF200B100FF3003180030B2003C083106320442
:102F02000319842F862F0130872F0030FB000430F5
:102F12008D313825973120003B08F8004F30F900F9
:102F2200AA30FA00FB0100308D3138259731333059
:102F32002000A3000730A400A731A3279731200067
:102F42003B08F8003330F9000030FA003B08FF3E3E
:102F5200B100FF3003180030B2003C0831063204E1
:102F62000319B42FB62F0130B72F0030FB00043005
:102F72008D313825973121005F08031DC12FC22FE3
:102F8200D72F0330F8002330F900AA30FA000230BC
:102F920020003C060319CE2FD02F0130D12F003054
:102FA200FB0000308D3138259731EB2F0330F800CC
:102FB2001E30F900AA30FA00023020003C06031944
:102FC200E32FE52F0130E62F0030FB0000308D317A
:102FD200382597310330F8003530F900AA30FA006D
:102FE200033020003C060319F72FF92F0130FA2F86
:0E2FF2000030FB0007308D3138259731080084
:1030020021000C1423000C1421008C1423008C14B6
:1030120083302200970021009E171E088F39203826
:103022009E001E1103309E041D140800F70077084D
:10303200F200F20DF20D21001D08720683397206AC
:103042009D000630890B2328003221009D149D1813
:103052002B282C2828281C08F200F3017208F800FB
:103062007308F9007908F3007808F2007208F30097
:10307200F2011B087207F5000030733DF600F535CA
:10308200F60DF535F60D7508F0007608F10008002A
:103092007008710403194E284F2876280130F40075
:1030A20059280130F035F10D890B53280130F4070E
:1030B200F11F5C285D28522871087302031D6328E2
:1030C20070087202031C662867286B287008F202D7
:1030D2007108F33B0130F136F00C890B6C2801309A
:1030E200F402031D752876285D287308F100720822
:1030F200F00008000030FB000030FA000030F90058
:103102000030F800701C862887288F287408F8077A
:103112007508F93D7608FA3D7708FB3D0130F43534
:10312200F50DF60DF70D890B90280130F336F20CF0
:10313200F10CF00C890B9728730872047104700467
:10314200031DA428A52883287B08F3007A08F2002F
:103152007908F1007808F0000800F601F701F8019B
:103162000130F200780AB628F235890BB5287208C8
:10317200210060050319BE28BF28D5287808F2006F
:10318200F301F235F30D0E30720784002830733DDF
:1031920080388500003FF400013FF500760874078F
:1031A200F6007708753DF7000130F807073078021E
:1031B200031CDC28DD28B1287708F1007608F0002E
:1031C2000800F601F701F8010130F200780AEA2856
:1031D200F235890BE9287208210061050319F228EA
:1031E200F32809297808F200F301F235F30D0030D3
:1031F200720784002830733D80388500003FF40058
:10320200013FF50076087407F6007708753DF70070
:103212000130F80707307802031C10291129E5282C
:103222007708F1007608F0000800A6315C26993193
:10323200F8011D30F900A930FA00FB0180308D3110
:1032420038259931F801F80A1430F900A930FA004A
:10325200FB0180308D31382599310230F8004F3032
:10326200F900A930FA00FB0180308D3138259931FF
:103272000330F8000430F900AA30FA00FB01803074
:103282008D3138259931A331F72399312000DA01A4
:1032920008007A302100990022008C018D018E01F4
:1032A20020001C08FC3902389C0087309C05FA304B
:1032B2009B00210091140B1720001C158B17C030A6
:1032C20023008D0522009113931321008E138E117A
:1032D2000E130E118E128E100E120E108D110C1175
:1032E2000D128C118D128C120C12E101E001DF0122
:1032F2006430C8000030C9009513080020005C0843
:10330200FC00FD017D08F8007C082000B100B2013C
:10331200B135B20D31085F0786003208603D870083
:10332200403FB300413FB4003308840034088500B5
:10333200003FF900013FFA005B087C060319A2294D
:10334200A4290130A5290030FB0080308D313825B9
:1033520099310130FC070130FD0704307D02031C66
:10336200B329B42983290800F000F101F01BBA291E
:10337200BB29BE2921008D13C02921008D170032DF
:1033820000320032003221000D17003200320032CA
:10339200003221000D13003200320032003270354B
:1033A200F0000130F10708307102031CD929DA2933
:1033B200B72921008D17003200320032003221007D
:1033C2000D17003200320032003221000D1300329C
:1033D2000032003200320800210066082000B100ED
:1033E200210067082000B200210068082000B30015
:1033F2005A08303EB100A6315C269931F8013130CD
:10340200F9000030FA00FB0100308D313825993186
:103412005D30F3000030F4000A30F5000A30F000AD
:1034220020005A08A4318D249931003EA531C025CF
:1034320099312000DB012830DC00A331F7239931D8
:103442009631962699310800FB3020005906031D5B
:103452002B2A2C2A382A0130DB0702305B02031C9C
:10346200332A342A352ADB01A631A6269A31503076
:1034720020005906031D3E2A3F2A5C2A5B08031DD1
:10348200432A442A592AA53159259A317108200024
:10349200DD007008DC000030F6000030F7005C3020
:1034A200F8000030F9000A30FA00A63138269A31C5
:1034B200883100209A310800A6315C269A31210019
:1034C20063082000B100210064082000B20021003E
:1034D20065082000B300F801F80A3130F900003025
:1034E200FA00FB0100308D3138259A315C30F3004F
:1034F2000030F4000A30F5000030A531C0259A31C1
:103502002000E601F801F80A5E30F9000030FA0006
:10351200FB0102308D3138259A312000DB01A331C5
:10352200F7239A31A631A6269A310800A6315C26E5
:103532009A31A331F7239A31F8011430F900AA30F5
:10354200FA00FB0100308D3138259A31F801F80A72
:10355200E630F900A930FA00FB0100308D31382540
:103562009A310230F8000F30F900AA30FA00FB015C
:1035720000308D3138259A312000DA0121004C08C3
:103582002000DF0021004B082000DE0021004A0855
:103592002000DD00210049082000DC00210048084D
:1035A2002000DB009031FC209A310800003020001E
:1035B200A3000030A200C330A1005030A000A83008
:1035C200AE006130AF000030B0000030B1007C08C6
:1035D200F0007D08F100890D893B8909F200F300B2
:1035E2007C08F4007D08F500890D893B8909F60005
:1035F200F70098317B209A3170082000AE077108DD
:10360200AF3D7208B03D7308B13D3108A7003008E4
:10361200A6002F08A5002E08A400933175239A3125
:1036220020002108B3002008B2003308FD00320850
:10363200FC000800A6315C269B31A331F7239B31A5
:10364200F801EC30F900A930FA00FB0100308D31AD
:1036520038259B31F801F80A6530F900A930FA00E3
:10366200FB0100308D3138259B310230F8002F30BC
:10367200F900A930FA00FB0100308D3138259B3169
:103682002000DA0121004F082000DC0021004E0852
:103692002000DB00210062194F2B512B0130522BED
:1036A20000302000DD002100E219582B5A2B013096
:1036B2005B2B00302000DE009431A2249B310800F5
:1036C2002000B6000130B7003308803AB5008030E0
:1036D2003502031D6E2B64303202031C712B722BD8
:1036E200842B0A30F0000030F10020003308F30090
:1036F2003208F2009D31AD259B3171082000B300E4
:103702007008B200B70120003308F9003208F8004F
:103712003830FA000430FB00913177219B312000D0
:1037220037080319952B962BA22B3908B8002030A5
:103732003806031D9D2B9E2BA02B3030B8002E3057
:10374200B9005730BB00BC013108F8003830F9002D
:103752000030FA003408FB0036088D3138259B31E1
:10376200080020005B080319B72BB82BCA2BF801FD
:103772002D30F900AA30FA005A080319C12BC32BC5
:103782000130C42B0030FB0000308D3138259B31D5
:10379200DB2BF8013130F900AA30FA005A0803197C
:1037A200D32BD52B0130D62B0030FB0000308D31CE
:1037B20038259B310330F8000A30F900AA30FA00AC
:1037C20020005A030319E62BE82B0130E92B0030C5
:1037D200FB0000308D3138259B310330F800353045
:1037E200F900AA30FA00023020005A060319FA2B17
:1037F200FC2B0130FD2B0030FB0007308D313825CA
:103802009B31080020005B080319082C092C1B2C93
:10381200F8015730F900A930FA005A080319122C9E
:10382200142C0130152C0030FB0000308D3138256E
:103832009C312C2CF8015E30F900A930FA005A08AC
:103842000319242C262C0130272C0030FB000030D9
:103852008D3138259C310330F8000A30F900AA3046
:10386200FA0020005A030319372C392C01303A2C64
:103872000030FB0000308D3138259C310330F800D8
:103882003530F900AA30FA00023020005A06031936
:103892004B2C4D2C01304E2C0030FB0007308D316B
:1038A20038259C310800F70080307702031C5A2C1F
:1038B2005B2C5C2CA72C7208031D602C612C642CE1
:1038C200F501F601682CFF30F5000030F6007508AE
:1038D200F400F801A53171259C312100400899318D
:1038E200B5219C3100309931B5219C317808B03E28
:1038F2009931B5219C3177080F399931B5219C3125
:103902007708F3000430F336890B842C7308103ED9
:103912009931B5219C31A53171259C312100400896
:103922009931B5219C3140309931B5219C317408CF
:103932009931B5219C31A4317A249C310130F807A8
:1039420008307802031CA62CA72C6B2C0800FB3035
:1039520020005906031DAE2CAF2CBB2C0130DA0718
:1039620003305A02031CB62CB72CB82CDA019B3157
:10397200B2239C31503020005906031DC12CC22CA9
:10398200FD2C2830D9025A08031DC82CC92CD42C6E
:103992005B080319CD2CCF2C0130D02C0030DB007A
:1039A2009B31B2239C3120005A03031DD92CDA2CFF
:1039B200F62C5B080319DE2CDF2CE22C2100E2142A
:1039C200E52CFD302100E2057030F6000030F700F2
:1039D200E230F8000030F900FA01FA0AA63138267E
:1039E2009C31883100209C31FD2C02305A06031D87
:1039F200FB2CFC2CFD2CF22C080020000D18022DB3
:103A0200032D152DFA3059020318082D092D0B2DFF
:103A12000130D90750305906031D102D112D2E2DBE
:103A220001302100BE002E2D21003E08031D1A2D5B
:103A32001B2D2A2D200059080319202D212D2A2D56
:103A4200FB3059020318262D272D2A2DFB30D900D1
:103A52002C2D2000D9012100BE0120008D18322D0D
:103A6200332D3F2D01302100BD0714303D02031CD0
:103A72003B2D3C2D412D0130BD00412D2100BD01CA
:103A820020000D19452D462D522D01302100BC0775
:103A920014303C02031C4E2D4F2D542D0130BC001E
:103AA200542D2100BC010800210069082000B1004A
:103AB20021006A082000B20021006B082000B30038
:103AC200C0015E084007B4003408303EB10040082F
:103AD200013EF8003130F9000030FA005C0834068B
:103AE2000319742D762D0130772D0030FB00003044
:103AF2008D3138259D313530F3000030F4000A3025
:103B0200F5000A30F00020003408A4318D249D31E4
:103B1200003EA531C0259D312000BF014008013E75
:103B2200F8003730F9000030FA005C083406031957
:103B32009B2D9D2D01309E2D0030FB0002308D31DA
:103B420038259D3101302000C00703304002031C9C
:103B5200AB2DAC2D622D0800F501F11FB12DB22D58
:103B6200B92DF009F109F00A0319F10A0130F50043
:103B7200F31FBC2DBD2DC42DF209F309F20A03195E
:103B8200F30A0130F506F601F70170087104031912
:103B9200CB2DCC2DF92D0130F400D62D0130F0358E
:103BA200F10D890BD02D0130F407F11FD92DDA2D3B
:103BB200CF2D0130F635F70D890BDB2D710873021D
:103BC200031DE52D70087202031CE82DE92DEE2D70
:103BD2007008F2027108F33B76140130F136F00CF2
:103BE200890BEF2D0130F402031DF82DF92DDA2D8A
:103BF20075080319FD2DFE2D032EF609F709F60AA5
:103C02000319F70A7708F1007608F0000800C430BB
:103C1200860000308700533100302000A3000030BE
:103C2200A2001030A1000030A00021005908F000CD
:103C32005A08F100890D893B8909F200F3005D08F9
:103C4200F4005E08F500890D893B8909F600F7004A
:103C520098317B209E3173082000A7007208A600CD
:103C62007108A5007008A400933175239E31403F6E
:103C720020002007B500413F213DB6003608FD0077
:103C82003508FC009A31D7229E317D082000B80009
:103C92007C08B7003808803AB40080303402031D33
:103CA200542E023037020318572E582E5B2E200056
:103CB200B701B801200038082100C50020003708EC
:103CC2002100C400080020005903031D692E6A2E3A
:103CD200C42E5A08031D6E2E6F2EA02E0130DA0755
:103CE200A6315C269E31F801ED30F900A830FA00C9
:103CF200FB0180308D3138259E31F801F80A2630DB
:103D0200F900A930FA00FB0180308D3138259E314F
:103D12000230F8004F30F900A930FA00FB01803080
:103D22008D3138259E310330F800FE30F900A9307C
:103D3200FA00FB0180308D3138259E31C42E5A03A2
:103D4200031DA42EA52EC12E0130DA07A6315C2652
:103D52009E31F801F80AF830F900A830FA00FB01A8
:103D620080308D3138259E310230F8007330F900F1
:103D7200A930FA00FB0180308D3138259E31C42EE6
:103D8200883100209E310800FB3020005906031DB7
:103D9200CB2ECC2ED82E0130DA0703305A02031C68
:103DA200D32ED42ED52EDA019C3103249E315030ED
:103DB20020005906031DDE2EDF2E282F2830D902BF
:103DC2005A08031DE52EE62EF12E5B080319EA2E92
:103DD200EC2E0130ED2E0030DB009C3103249E31AD
:103DE20020005A03031DF62EF72E1E2F5B0803191F
:103DF200FB2EFC2EFF2E21006214022FFE3021002A
:103E0200E2057030F6000030F700E230F8000030D2
:103E1200F900FA01FA0AA63138269E312100621809
:103E2200132F152F0130162F0030F7007830943100
:103E320001249E31883100209E31023020005A0632
:103E4200031D242F252F282F883100209E310800A2
:103E520021006D082000C20021006C082000C10072
:103E62005B08313EC100F801F230F900A930FA00D6
:103E7200FB0100308D3138259F31F8014130F900C6
:103E82000030FA00FB0109308D3138259F31F801ED
:103E9200F80A0230F900A930FA00FB0100308D3136
:103EA20038259F310230F800F830F900A930FA00C5
:103EB200FB0100308D3138259F3102302000B100E6
:103EC2005B08BD00BE01BD35BE0D5C30BF000030D9
:103ED200C0003D083F0786003E08403D8700403F46
:103EE200B200413FB3005A080319782F7A2F0130EC
:103EF2007B2F0030B40006309B3161239F310330A9
:103F0200F8003530F900AA30FA0020005A030319EC
:103F12008B2F8D2F01308E2F0030FB0007308D311B
:103F220038259F310800C830F3000030F400023019
:103F3200F5006E30A531C0259F31CA30F300003044
:103F4200F4000230F5006C30A531C0259F31CC3031
:103F5200F3000030F400F501F50A7430A531C025F4
:103F62009F31CE30F3000030F4000230F5006A30A9
:103F7200A531C0259F31CD30F3000030F400F501AA
:103F8200F50A7330A531C0259F31D330F3000030DC
:103F9200F4000230F5006830A531C0259F31D530DC
:103FA200F3000030F4000230F5006630A531C02580
:103FB2009F31D730F3000030F4000230F500713049
:103FC200A531C0259F31D930F3000030F400023012
:103FD200F5006430A531C0259F31E230F300003096
:103FE200F400F501F50A7030A531C0259F3121009A
:103FF200620A031DFD2FFE2FFF2FE201080020346D
:104002003034313432343334343435343634373472
:104012003834393461346234633464346534663438
:104022006734683469346A346B346C346D346E349A
:104032006F3470347134723473347434753476344A
:104042007734783479347A344134423443344434E2
:10405200453446344734483449344A344B344C347A
:104062004D344E344F34503451345234533454342A
:10407200553456345734583459345A343F34213431
:104082002F342B342D342334253424345F3400343C
:1047DA00AE30A431DB24A3310800AF30A431DB248E
:1047EA00A3310800FF302000D9002100BE010800D3
:1047FA00640080010131890BFE2B0034FE00120097
:10480A001E00FE0B042C003420006108F200600830
:10481A00F100A431B324A431A7314827A4310800F8
:10482A002000DC01DE01DA01DB019D315525A431CE
:10483A00A331F723A43108000030F100F200A431BB
:10484A00B324A4312100D00188310020A43108000A
:10485A0030343A34003430343A34003430343A3470
:10486A00003420340034043421000D1424000D14C3
:10487A0021008D1424008D1421000D1524000D151E
:10488A00080001302100BB00B901B801DF01E001D5
:10489A00E1019131F521A43102302100B80008006C
:1048AA002000B4003208B500B6013108F8003530EE
:1048BA00F9000030FA003308FB0034088D3138253E
:1048CA00A4310800F2006400230095186D2C6E2CA8
:1048DA00682C7208F000F1017008910071089200CA
:1048EA003F30950515141308080021008D13003276
:1048FA0000320032003221000D170032003200323D
:10490A00003221008D1700320032003200320800D6
:10491A00F200F101721C922C932C952C7008F1076D
:10492A000310F00D0310F20C7208031D9D2C9E2C2F
:10493A008F2C71080800A6315C26A431F801AB302F
:10494A00F900A830FA00FB0100308D313825A43176
:10495A002000DD01A4311524A4310800F21FB62C71
:10496A00B72CBB2C01302100DF00BD2C2100DF0158
:10497A0072087F39E00071087F39E1009131F52131
:10498A00A4310800A6315C26A431F801B630F9003A
:10499A00A830FA00FB0100308D313825A4310130EE
:1049AA002000DD00A4311524A4310800F200A5314D
:1049BA007125A431210040089931B521A4318030F4
:1049CA009931B521A43172089931B521A431A431A4
:1049DA007A24A4310800A6315C26A431A331F72336
:1049EA00A4312000DB01DC01DD01DE010630DA0042
:1049FA003D30DF000130E00099317F21A431080009
:104A0A00A6315C26A531A331F723A5312000DB01AD
:104A1A00DC01DD01DE010630DA003130DF00013071
:104A2A00E00099317F21A531080001302100D00032
:104A3A00A5315925A53171082100D2007008D1008D
:104A4A000030F100F200A431B324A53188310020EE
:104A5A00A5310800A6315C26A531A331F723A5317B
:104A6A002000DA01210062183B2D3D2D01303E2D38
:104A7A0000302000DB009C310324A5310800A63158
:104A8A005C26A531A331F723A5312000DA012100E4
:104A9A00E218502D522D0130532D00302000DB003A
:104AAA009B31B223A531080021006008F200F3010E
:104ABA007208F300F20161087207F5000030733DD5
:104ACA00F6005F0803196A2D6B2D6C2DF617760810
:104ADA00F1007508F000080021000D1700320032BD
:104AEA000032003221008D170032003200320032CB
:104AFA0021008D13003200320032003221000D13E2
:104B0A00003200320032003208007108F4007008E6
:104B1A00F30064009D2D0630F2003030890B932D8E
:104B2A00F20B932D003264000130F3020030F43BA3
:104B3A0073087404031DA22DA32D902D0800A6311D
:104B4A005C26A531A331F723A5312000DA01A5316E
:104B5A005925A53171082000DC007008DB00DD0151
:104B6A002100DF01E001E1019131F521A531973101
:104B7A004A27A5310800F6007408F8007308F70000
:104B8A00D72D77088600780887007608A43167242D
:104B9A00A53181000130F5020130F6070130F7072F
:104BAA000030F83D7508031DDB2DDC2DC62D0800ED
:104BBA00A6315C26A5312000DA01DB012100540868
:104BCA002000DD00210053082000DC0021005608E7
:104BDA002000DF00210055082000DE00A331F72362
:104BEA00A5319F312927A5310800F401F501701C70
:104BFA00FF2D002E042E7208F4077308F53D0130CC
:104C0A00F235F30D890B052E0130F136F00C890BC4
:104C1A000A2E70087104031D132E142EFC2D75081C
:104C2A00F1007408F0000800A6315C26A631A33111
:104C3A00F723A631F8016C30F900A930FA00FB011C
:104C4A00FB0A80308D313825A6312000DB01A531E1
:104C5A005925A63171082000DD007008DC00A43156
:104C6A004624A63108007808FB00512E2300951827
:104C7A003F2E402E3B2E7B08860087010108F0005C
:104C8A007608A631CD26A6310130FA020130F607A0
:104C9A000030F73D0130FB077A08031D552E562ECA
:104CAA003B2E230095185A2E5B2E562E0800A33150
:104CBA00ED23A631F601F2017608A731D127A631F4
:104CCA00F50100309931B521A6310130F507803060
:104CDA007502031C712E722E662E0130F6070830FB
:104CEA007602031C792E7A2E602EA4317A24A631FC
:104CFA00A331F223A631080021003B08FC00023050
:104D0A007C06031D892E8A2E952E20005B08031926
:104D1A008F2E902E932EDB01FC01952E0130DB00A5
:104D2A000230F8007C35203E860001308700403F83
:104D3A00F900413FFA00FB0180308D313825A63158
:104D4A0008000330F8000A30F900AA30FA002000FF
:104D5A005B080319B12EB32E0130B42E0030FB00CC
:104D6A0000308D313825A6310330F8003530F9008E
:104D7A00AA30FA0020005B030319C42EC62E0130A4
:104D8A00C72E0030FB0007308D313825A6310800C8
:104D9A00F30023009518D22ED32ECE2E7308F100DD
:104DAA00F2017108910072089200700893003F3076
:104DBA009505200003108B1FE32EE42EE52E031425
:104DCA008B132300151555309600AA3096009514BA
:104DDA0015112000031CF22EF32EF42E8B17080057
:104DEA005E34A8340234A9345334A8344834A8347D
:104DFA003D34A8343234A83430342E34303430348C
:104E0A000034B034A934AA34A9349834A934A43467
:104E1A00A9349E34A9349234A934CE34A934BC348A
:104E2A00A934C234A934C834A934D434A934B63420
:104E3A00A93480314F20A73101302000DA073230FF
:104E4A005A06031D292F2A2F2E2FDA01A631812671
:104E5A00A73120005903031D332F342F3F2F5D083C
:104E6A00F2005C08F100A431B324A7318831002094
:104E7A00A731472F053021003B06031D452F462F3A
:104E8A00472F3B2F0800A6315C26A731A331F72311
:104E9A00A731F8013930F900AA30FA00FB010030D5
:104EAA008D313825A731F801F80A3D30F900AA30CA
:104EBA00FA00FB0100308D313825A7312000DA01D4
:104ECA00FF30DB00FF30DC00DF01DD01DE01A53150
:104EDA005925A73171082000E1007008E000080098
:104EEA0007302000240203187B2F7C2F7D2FA22F4E
:104EFA009831AE20A73171082000A6007008A500DD
:104F0A002608F9002508F8002308FA000530FB00F6
:104F1A0091317721A73120002308043E86008701BA
:104F2A00703081002308053E8600870146308100E3
:104F3A002308063E86008701810108000730200009
:104F4A0024020318A92FAA2FAB2FD02F9831E220C1
:104F5A00A73171082000A6007008A5002608F900EC
:104F6A002508F8002308FA000530FB009131772163
:104F7A00A73120002308043E860087016E30810095
:104F8A002308053E86008701483081002308063E33
:104F9A008600870181010800F400A5317125A73137
:104FAA00210040089931B521A73100309931B52146
:104FBA00A7317408B03E9931B521A73172080F396B
:104FCA009931B521A7317208F3000430F336890B01
:104FDA00EB2F7308103E9931B521A731A531712500
:104FEA00A731210040089931B521A73140309931C4
:104FFA00B521A73108003234003464340034DC347B
:10500A000034C2340134E834033498340834303478
:10501A0011340A340034163400342F340034643422
:10502A000034DC340034D6340134E8340334003438
:10503A0001340234043408341034203440346034E7
:10504A0070347F34003401340234043408341034A8
:10505A0020344034603470347F3420342034523465
:10506A006534613464347934203420342034003493
:10507A00203450345734523420346C346F347734FB
:10508A0020342034003420342034423472346534DD
:10509A0061346B34203420342034003420345234C8
:1050AA0075346E346E3469346E3467342034203487
:1050BA000034203420342034203420342034203466
:1050CA002034203420340034413462346F3475344F
:1050DA0074342034203420342034203400345334BF
:1050EA0065347434753470342034203420342034D8
:1050FA0020340034433461346C3469346234723499
:10510A00613474346534203400345434653473346F
:10511A0074342034203420342034203420340034B1
:10512A0053346C346534653470342034203420347C
:10513A00203420340034543475346E3469346E3477
:10514A006734203420342034203400344C346F3413
:10515A00613464342034543475346E346534203404
:10516A00003453346134763465342034543475341D
:10517A006E34653420340034423479347034613406
:10518A0073347334203420342034203400345234BD
:10519A006534733465347434203420342034203434
:1051AA00203400344434653462347534673420342E
:1051BA0020342034203420340034443469347334A5
:1051CA0070346C346134793420342034203400341F
:1051DA0059346534743441346E346F3474346834F9
:1051EA0065347234003454347734653461346B3442
:1051FA00733420346234793400344134773461347E
:10520A0069347434203454347834003420344234C9
:10521A007934703461347334733420340034643430
:10522A0065347334693467346E34653464340034F5
:10523A004834613472346434773461347234653496
:10524A0000344634693472346D34773461347234DC
:10525A006534003452346C347934533461347634DE
:10526A0065340034563430342E34363439342E34DE
:10527A00303400344534583454342D34593441349C
:10528A00463400344134543455342D3431343034B6
:10529A003034003462347934003446345734443478
:1052AA003D34003452346F347434613474346534A8
:1052BA0000344E346F3472346D3461346C340034DB
:1052CA0052344634773461346B34653400342034D4
:1052DA00543475346E3465342034003432344534F1
:1052EA00303455344D344B34003453346C346534D3
:1052FA00653470340034003400345D341A34253493
:10530A001A3400340034ED341934EB3415340034D3
:10531A000034193426341E342734D734A83444349C
:10532A002534A8341C347F34A834DD3425347A3447
:10533A0003348A34A834A4342534FA340B34E234DE
:10534A00A8342F342534C5341E349534A8341B347C
:10535A001B3428340A34A034A83497341A349634C7
:10536A0008346934A8341634193464341E34AB341E
:10537A00A834A034243409340834B634A834C734E1
:10538A00243409340834CC34A83421342434003485
:10539A000034C134A8341A34253400340034743447
:1053AA00A834053425348D34103400340034F034F4
:1053BA0024348D341034003400344834273494347F
:1053CA000E345334743461347234743400344434D3
:1053DA0065346C3461347934003450346F34693450
:1053EA006E347434003450346F3477346534723424
:1053FA00003444344734343453344E3400344E3455
:10540A0037344434443443340034533461347634C6
:10541A0065340034533474346F3470340034413496
:10542A00753474346F3400344134553454344F3441
:10543A0000343E344C342D34433400343E34433447
:10544A002D344C3400345234453456343D3400340F
:10545A0020344F346E3400344F34663466340034AA
:10546A00453473346334003450345734523400347E
:10547A005334573452340034503430343A340034CC
:10548A00503431343A3400344F344B3400344334DA
:10549A003D3400344C343D34003447343A3400341B
:0E54AA004F343A3400344E3400345934003458
:020000040001F9
:08000000FF3FFF3FFF3FFF3F00
:04000E00FC0FFF3FA5
:10E00000000000005300740061007200740075008D
:10E0100070002000000000002000200020002000F0
:10E020002000200020002000000000002000200030
:10E030002000200020002000200020000000000020
:10E0400020002000200020002000200020002000D0
:10E050000000000020002000200020002000200000
:10E0600020002000000000002000200020002000F0
:10E0700020002000200020000000000020002000E0
:10E0800020002000200020002000200000000000D0
:10E090002000200020002000200020002000200080
:10E0A00000000000200020002000200020002000B0
:10E0B00020002000000000002000200020002000A0
:10E0C0002000200020002000100027001E0000007B
:10E0D0000A0000001E0000008C0000007800000014
:0AE0E0000100000000000000000035
:00000001FF
