:040000008031112812
:100008007E1480312000911C0A280B280F2891109B
:1000180001302100BB077E100900803113285530BC
:100028008400A7308500DB30860000308700103060
:10003800A7311E27803189308400993085004830E7
:100048008600013087002230A7311E2780315B30BF
:100058008400003085001530A73118278031A03082
:100068008400003085003B30A731182780312030CC
:100078008400013085002830A731182780317E1090
:1000880020009431B32C03302100340603194D2885
:100098004E28792B05303406031D5328542855283B
:1000A800792B3108031959285A285D280130B102E3
:1000B800792B9031662080319531312580312100AE
:1000C80032080319682869286A2B3D08803A2000FD
:1000D800B90080303902031D74280A3021003C021F
:1000E8000318772878286A2B04302100B400792B6C
:1000F8003D08803A2000B90080303902031D872866
:100108000A3021003C02031C8A288B28792B0A30EC
:100118002100B2000230B400E730AA000330AB007F
:10012800E730A8000330A900E730A6000330A70095
:100138002000E001DF0102302100B100792B4108E5
:10014800803A2000B90021003F08803A2000390297
:10015800031DB12821003E084002031CB428B5281D
:10016800B92805302100B400792B21003F08803AD6
:100178002000B90021002908803A20003902031D17
:10018800C828210028083E020318CB28CC28D128EB
:1001980021003F08A9003E08A80021003F08803A36
:1001A8002000B90021002B08803A20003902031DE5
:1001B800E02821002A083E020318E328E428F12851
:1001C80021003F08AB003E08AA0020005F08DE00BF
:1001D8006008DD0021005708B00001302000DF076B
:1001E8000B305F020318F928FA2822291430F0008E
:1001F8000030F10021002908F3002808F2009031AE
:100208000B2080312100280870072000B900210048
:100218002908713D2000BA003A08803ABB00210045
:100228003F08803A20003B02031D1E2921003E089A
:100238002000390203182129222984292000DF01FE
:100248000130E0071430F0000030F10021002708E9
:10025800F3002608F20090310B2080312100260897
:1002680070072000B90021002708713D2000BA005E
:100278003A08803ABB0021002908803A20003B0256
:10028800031D4A29210028082000390203184D2996
:100298004E29662921005703031D5329542957293C
:1002A8001430B200792B0130D7002000DF01E001C3
:1002B800E7302100A8000330A900E730A60003308A
:1002C800A7006B2921002908A7002808A600E73005
:1002D800A8000330A9000B3020006002031C752918
:1002E80076298429E001E7302100A8000330A9001D
:1002F8005703031D80298129822954290130D700F9
:1003080020005F08273E8400A8300318013E8500BE
:1003180000082100D800200060081C3E8400A83096
:100328000318013E850000082100D90094313524C6
:1003380080319F283008D70020005E08273E8400BF
:10034800A8300318013E850000082100D8002000CD
:100358005D081C3E8400A8300318013E8500000893
:100368002100D90020005E08273E8400A830031829
:10037800013E850000082100A40020005D081C3E05
:100388008400A8300318013E850000082100A10060
:1003980020005E080319D129D229E9295E08263EE2
:1003A8008400A8300318013E85000008B9005E08E3
:1003B800273E8400A8300318013E85000008BA00D3
:1003C80039083A022100AF00EB292100AF010A30B9
:1003D80020005E020318F129F229092A5E08273E47
:1003E8008400A8300318013E85000008B9005E08A3
:1003F800283E8400A8300318013E85000008BA0092
:1004080039083A022100AE000B2A2100AE01200073
:100418005D080319102A112A282A5D081B3E84004A
:10042800A8300318013E85000008B9005D081C3E8D
:100438008400A8300318013E85000008BA00390876
:100448003A022100AD002A2A2100AD010A3020001D
:100458005D020318302A312A482A5D081C3E8400B0
:10046800A8300318013E85000008B9005D081D3E4C
:100478008400A8300318013E85000008BA00390836
:100488003A022100AC004A2A2100AC010230F000F7
:100498000030F1002F082000B900BA013908F20035
:1004A8003A08F30090310B20803170082100AF002A
:1004B8000230F0000030F1002E082000B900BA0127
:1004C8003908F2003A08F30090310B2080317008A7
:1004D8002100AE000230F0000030F1002D082000AD
:1004E800B900BA013908F2003A08F30090310B203C
:1004F800803170082100AD000230F0000030F100BA
:100508002C082000B900BA013908F2003A08F300B3
:1005180090310B20803170082100AC002F08240294
:10052800A30024082E07A5002D082102A0002108F9
:100538002C07A200E730AA000330AB0001302000EE
:10054800DF000130E00021002408D8002108D9008C
:1005580094313524803102302100B1001E30B200C0
:10056800792B4108803A2000B90021003F08803AE1
:1005780020003902031DC32A21003E084002031C43
:10058800C62AC72AC82AB52821003F08803A200071
:10059800B90021002B08803A20003902031DD72A10
:1005A80021002A083E020318DA2ADB2AE52A21005C
:1005B8003F08AB003E08AA0020005F08DE00600884
:1005C800DD0020005F03031DEA2AEB2AFF2A210031
:1005D800240823060319F12AF22AF52A2000DF014C
:1005E8003A2B250824060319FA2AFB2AFF2A023087
:1005F8002000DF003A2B20005F08031D042B052B89
:100608000D2B21002508240603190B2B0C2B0D2B71
:10061800FB2A01302000DF006003031D142B152B7B
:10062800262B21002108200603191B2B1C2B1F2B0E
:100638002000E0013A2B220821060319242B252B40
:10064800262BFB2A20006008031D2B2B2C2B372B75
:100658002100220821060319322B332B372B0230B5
:100668002000E0003A2B01302000E0005F03031D6A
:100678003E2B3F2B572B6003031D432B442B572B3B
:100688005E08A33E8600870101082100D8002000EB
:100698005D08A03E8600870101082100D900943139
:1006A80035248031B5285F08A33E860087010108FC
:1006B8002100D80020006008A03E860087010108BC
:1006C8002100D9009A290330B400792B210032087F
:1006D800003A03197C280A3A0319A3281E3A031979
:1006E8009E290A3A0319B52A672B080000340034FA
:1006F800003400340034003400345F3400340034F3
:100708000034073400340734003414347F3414348C
:100718007F34143424342A347F342A341234233472
:10072800133408346434623436344934553422344A
:1007380050340034053403340034003400341C349D
:100748002234413400340034413422341C3400341F
:1007580008342A341C342A340834083408343E3423
:100768000834083400345034303400340034083449
:100778000834083408340834003430343034003451
:100788000034203410340834043402343E345134F4
:10079800493445343E34003442347F3440340034E4
:1007A8004234613451344934463421344134453477
:1007B8004B3431341834143412347F341034273421
:1007C80045344534453439343C344A344934493461
:1007D800303401347134093405340334363449343F
:1007E80049344934363406344934493429341E34BA
:1007F8000034363436340034003400345634363459
:1008080000340034003408341434223441341434AD
:100818001434143414341434413422341434083461
:100828000034023401345134093406343234493442
:10083800793441343E347E341134113411347E34E9
:100848007F3449344934493436343E3441344134B0
:10085800413422347F344134413422341C347F34CF
:1008680049344934493441347F3409340934013432
:1008780001343E3441344134513432347F34083405
:10088800083408347F34003441347F344134003430
:100898002034403441343F3401347F340834143434
:1008A800223441347F3440344034403440347F343F
:1008B8000234043402347F347F340434083410346E
:1008C8007F343E344134413441343E347F3409343A
:1008D8000934093406343E344134513421345E3409
:1008E8007F34093419342934463446344934493478
:1008F80049343134013401347F34013401343F3414
:100908004034403440343F341F34203440342034A1
:100918001F347F342034183420347F346334143443
:10092800083414346334033404347834043403341A
:1009380061345134493445344334003400347F340D
:1009480041344134023404340834103420344134FE
:1009580041347F3400340034043402340134023426
:10096800043440344034403440344034003401349A
:100978000234043400342034543454345434783435
:100988007F34483444344434383438344434443478
:100998004434203438344434443448347F3438348C
:1009A800543454345434183408347E3409340134FB
:1009B800023408341434543454343C347F34083406
:1009C800043404347834003444347D3440340034FE
:1009D8002034403444343D34003400347F341034FF
:1009E80028344434003441347F34403400347C3477
:1009F80004341834043478347C340834043404342B
:100A08007834383444344434443438347C341434FA
:100A180014341434083408341434143418347C343A
:100A28007C3408340434043408344834543454349A
:100A38005434203404343F344434403420343C3477
:100A48004034403420347C341C3420344034203446
:100A58001C343C344034303440343C34443428343E
:100A68001034283444340C345034503450343C342A
:100A78004434643454344C34443400340834363404
:100A880041340034003400347F34003400340034FE
:100A98004134363408340034083408342A341C34D9
:100AA800083408341C342A3408340834FB30200055
:100AB8006106031D602D612D672D6308013AE3006F
:100AC800913184218531503020006106031D6D2D40
:100AD8006E2DE32D2830E1026308031D742D752D5A
:100AE800DF2D0230640203187A2D7B2DDF2D640878
:100AF800C300C401C335C40D6530C5000030C6004D
:100B08004308450786004408463D8700403FCD001E
:100B1800413FCE004E08803AC30080304302031D97
:100B2800972D64304D0203189A2D9B2DA12D053069
:100B38002000CD070030CE3DA62D32302000CD0755
:100B48000030CE3D6408031DAA2DAB2DBC2D4E08E8
:100B5800803AC30080304302031DB42D65304D0236
:100B6800031CB72DB82DCE2D2000CD01CE01CE2DE2
:100B78004E08803AC30083304302031DC52DE93077
:100B88004D02031CC82DC92DCE2D20006608CE00AD
:100B98006508CD0020006435653E86000030873D3D
:100BA80064350030873D4D08C03F4E08C13F913144
:100BB80084218531E32D903102208531252F0230A3
:100BC800200064020318E92DEA2D382E210056086A
:100BD800803A2000C30080304302031DF62D6530A3
:100BE80021005502031CF92DFA2D1D2F0630200077
:100BF800C4001330C300AD30890B002EC30B002E88
:100C0800C40B002E003287312627853120006E085C
:100C180021005606031D142E20006D0821005506DC
:100C2800031D172E182E1D2F20006435693E8600DF
:100C38000030873D64350030873D21005508C03FAE
:100C48005608C13F9931AB218531F801F80A1F30A8
:100C5800F900AA30FA00FB0180308D314825853132
:100C680002302000E4071D2F21005608803A20009A
:100C7800C30080304302031D442E05302100550275
:100C88000318472E482E1D2F01302000E40264036C
:100C9800031D4F2E502E572E9931AB21853191319E
:100CA800842185311D2F66082100CC0020006508AD
:100CB8002100CB00200068082100CE002000670832
:100CC8002100CD004C08FD004B08FC0088319F2016
:100CD80085317D082000CC007C08CB0021004E081F
:100CE800FD004D08FC0088319F2085317D082000DB
:100CF800CA007C08C900633086000030870046318E
:100D080063308400003085000831403F0002A000B5
:100D18000131413F003BA100A201A11BA20322080F
:100D2800A3004B084902C3004C084A3BC4004308CF
:100D3800C5004408C6000030C61BFF30C700C80005
:100D48000C30C535C60DC70DC80D890BA52E480832
:100D5800A7004708A6004608A5004508A400963144
:100D680040268531200021082100D20020002008DB
:100D78002100D10000302000A3000030A200103074
:100D8800A1000030A00021005108F0005208F10035
:100D9800890D893B8909F200F30020006908F400F5
:100DA8006A08F500890D893B8909F600F7009B312F
:100DB8008523853173082000A7007208A6007108F2
:100DC800A5007008A400963140268531200020082F
:100DD8004B022100CF00200021084C3B2100D0000D
:100DE800CB30F4000030F5000230F6006A3098315C
:100DF800C2208531CD30F4000030F5000230F60015
:100E080068309831C2208531CF30F4000030F500C9
:100E18000230F60066309831C2208531D130F400B6
:100E28000030F5000230F60064309831C220853178
:100E3800DF2D210056082000EE0021005508200073
:100E4800ED00080000302000B7000030B600003088
:100E5800B5000030B4000030BB000030BA000030EC
:100E6800B9000030B800BD01BC010130BD073D35F7
:100E7800343E860001308700403FAE00413FAF005E
:100E88003C35343E8600013087002E08C03F2F08CD
:100E9800C13F2E08B0002F08B1000030B11BFF3051
:100EA800B200B3003008B4073108B53D3208B63D8A
:100EB8003308B73D3D35203E860001308700403F6E
:100EC800AE00413FAF003C35203E86000130870030
:100ED8002E08C03F2F08C13F2E08B0002F08B100D0
:100EE8000030B11BFF30B200B3003008B80731083A
:100EF800B93D3208BA3D3308BB3D0130BC07093063
:100F08003C02031C882F892F392F01309B31532332
:100F1800873120003D35343E860001308700700857
:100F2800C03F7108C13F7008AE007108AF000030C3
:100F3800AF1BFF30B000B1002E08B4072F08B53D35
:100F48003008B63D3108B73D00309B315323873117
:100F580020003D35203E8600013087007008C03FE4
:100F68007108C13F7008AE007108AF000030AF1BB8
:100F7800FF30B000B1002E08B8072F08B93D30087F
:100F8800BA3D3108BB3D0030A3000030A20000305C
:100F9800A1000A30A0003708A7003608A6003508C7
:100FA800A5003408A4009631402687312000210886
:100FB8002100D600200020082100D50000302000A4
:100FC800A3000030A2000030A1000A30A0003B08B6
:100FD800A7003A08A6003908A5003808A4009631E9
:100FE80040268731200021082100D4002000200855
:060FF8002100D3000800F7
:1010020020006108031D0628072809282830E5006A
:10101200FB306106031D0E280F281B280130E40750
:101022000A306402031C162817281828E4018A31A2
:10103200A0228831503020006106031D2128222879
:101042009E286508E1020B306502031C29282A2824
:101052002C280530E50208306402031831283228B2
:1010620074286830BA000030BB0064083A07860072
:1010720000303B3D87000108BC00BD014228013021
:10108200BD073D08003E8400A0300318013E8500E4
:1010920000083C0603194E284F28552849303D02C6
:1010A200031C5428552840280130BD0748303D0212
:1010B200031C5C285D285E28BD016830BA00003040
:1010C200BB0064083A07860000303B3D87003D08BC
:1010D200003E8400A0300318013E85000008810014
:1010E2008A31A0228831083020006406031D7A2844
:1010F2007B28972898319120883171082000E700D9
:101102007008E6006630F4000030F5000A30F600A0
:101112000A30F0006308A7319D278831003E9831DC
:10112200C22088319031022088319E28093064061D
:10113200031D9C289D289E28932808007C08F00007
:101142007D08F100890D893B8909F200F300003026
:10115200F7000030F600C330F5005030F4009B3148
:101162008523883173082000B9007208B80071081D
:10117200B7007008B6000030A3000030A2000030B3
:10118200A1000230A0003908A7003808A6003708DD
:10119200A5003608A4009631402688312000230895
:1011A200BD002208BC002108BB002008BA000030A4
:1011B200C1000030C0000030BF000030BE002D2949
:1011C2003D08C1003C08C0003B08BF003A08BE0011
:1011D2004108A3004008A2003F08A1003E08A00069
:1011E2003908A7003808A6003708A5003608A40069
:1011F200963140268831200020083E07AE002108A3
:101202003F3DAF002208403DB0002308413DB10000
:101212003108B5003008B4002F08B3002E08B20020
:101222000030A3000030A2000030A1000230A00074
:101232003508A7003408A6003308A5003208A40028
:1012420096314026883120002308BD002208BC00C8
:101252002108BB002008BA0041083D06031D3B29B6
:1012620040083C06031D3B293F083B06031D3B2962
:101272003E083A06031D3E293F29E1283B08FD00AE
:101282003A08FC00080002302000C6000330C70004
:10129200B10121003D082000B30021003C082000DC
:1012A200B200B40104309E31AF2689312000B10171
:1012B200B10A21003F082000B30021003E082000AF
:1012C200B200B40104309D319E25893121005708B6
:1012D20003196C296D29722903302000C6000230DF
:1012E200C70021004803031D772978298529033087
:1012F200F8000B30F900A930FA00FB01FB0A0030BC
:101302008D3148258931C52920004608F800223050
:10131200F900AA30FA00FB0100308D3148258931ED
:101322003D302000A3000730A4009A31C822893141
:1013320020004608F8003D30F9000030FA00FB01B9
:1013420002308D314825893120004708F8002530C8
:10135200F900AA30FA00FB0100308D3148258931AD
:101362003D302000A3000730A4009A31F6228931D3
:1013720020004708F8003D30F9000030FA00FB0178
:1013820002308D314825893121004403031DCA29C9
:10139200CB29EF2948030319CF29D029EF29FC30A3
:1013A2002000C400A930C500C8014808B10048089F
:1013B2004407840045080318013E85000008B20076
:1013C200B3010930A7316527893101302000C807F0
:1013D20004304802031CEE29EF29D6290800FB300D
:1013E20020006106031DF629F729032A0130E307CD
:1013F20005306302031CFE29FF29002AE301933111
:101402003C238931503020006106031D092A0A2A33
:101412009F2A2830E1026308031D102A112A1D2A7F
:101422006803031D152A162A182AE8011A2A013010
:10143200E80093313C23893120006303031D222AF3
:10144200232A3C2A0530E6070030E73D6708803A48
:10145200BD0080303D02031D302AC9306602031CE4
:10146200332A342A392A78302000E6000030E70097
:1014720093313C238931023020006306031D422A46
:10148200432A5C2A0530E4070030E53D6508803ACE
:10149200BD0080303D02031D502A97306402031CB8
:1014A200532A542A592A64302000E4000030E5000F
:1014B20093313C238931033020006306031D622AE5
:1014C200632A982A68082100C400200067082100C6
:1014D200C300200066082100C20020006508210028
:1014E200C100200064082100C000C030F4000030B8
:1014F200F5000230F60070309831C2208931C230D6
:10150200F4000030F5000230F6006E309831C2204F
:101512008931C430F4000030F500F601F60A743067
:101522009831C22089319031022089319F2A0430BA
:101532006306031D9D2A9E2A9F2A942A08002000E2
:10154200B901B1016830FC000030FD0039087C07A8
:10155200860000307D3D87000108B200640839062C
:101562000319B42AB62A0130B72A0030B300390869
:10157200023EA73165278A3101302000B9070830C1
:101582003902031CC52AC62AA22A0830640203189B
:10159200CB2ACC2A202B6830FC000030FD006408E6
:1015A2007C07860000307D3D87000108B700B90145
:1015B200DC2A0130B9073908003E8400A030031844
:1015C200013E8500000837060319E82AE92AEF2AB6
:1015D20049303902031CEE2AEF2ADA2AB101B10A94
:1015E2003708B200B301B30A0230A73165278A3146
:1015F20001302000B8000130B90748303902031C1D
:10160200032B042B052BB901B101B10A3908003EA5
:101612008400A0300318013E85000008B200B30127
:101622003808023EA73165278A3101302000B80709
:1016320008303802031C1E2B1F2BFC2A2B2BF8010F
:10164200F80A6930F900A830FA00FB0100308D3148
:1016520048258A310330F800ED30F900A930FA004C
:101662000830200064060319372B392B01303A2B3E
:101672000030FB0000308D3148258A310330F800FC
:101682001330F900AA30FA00093020006406031969
:101692004B2B4D2B01304E2B0030FB0007308D3190
:1016A20048258A31080020006308BC000130BA00D6
:1016B2000230BB00210057080319602B612B662BF7
:1016C20002302000BA000130BB0020003A08F800C6
:1016D2002230F900AA30FA00FB0100308D31482592
:1016E2008B3133302000A3000730A4009A31C82286
:1016F2008B3120003A08F8003330F9000030FA004C
:101702003A08FF3EB100FF3003180030B2003C0837
:101712003106320403198E2B902B0130912B0030AD
:10172200FB0004308D3148258B3120003B08F80046
:101732002530F900AA30FA00FB0100308D3148252E
:101742008B3133302000A3000730A4009A31F622F7
:101752008B3120003B08F8003330F9000030FA00EA
:101762003B08FF3EB100FF3003180030B2003C08D6
:10177200310632040319BE2BC02B0130C12B0030BD
:10178200FB0004308D3148258B3121005708031DA1
:10179200CB2BCC2BE12B0330F8000630F900AA301A
:1017A200FA00023020003C060319D82BDA2B013054
:1017B200DB2B0030FB0000308D3148258B31F52BBF
:1017C2000330F8000130F900AA30FA00023020009C
:1017D2003C060319ED2BEF2B0130F02B0030FB0000
:1017E20000308D3148258B310330F8001330F90079
:1017F200AA30FA00033020003C060319012C032C06
:101802000130042C0030FB0007308D3148258B312C
:10181200080001302000E6070A306606031D122C7C
:10182200132C382CE601903166208C31953131250C
:101832008C312000B10121003F082000B3002100BB
:101842003E082000B200B40100309D319E258C314B
:101852002000B10121003D082000B30021003C0816
:101862002000B200B40106309E31AF268C31FB302D
:1018720020006106031D3E2C3F2C4B2C0130E30758
:1018820004306302031C462C472C482CE3018B31A5
:1018920054238C31503020006106031D512C522CF0
:1018A200C72C2830E10221005708031D592C5A2C5D
:1018B200602C2000630803195F2C602C6C2C210023
:1018C20057080319652C662C782C20006303031D2E
:1018D2006B2C6C2C782C21005808031D712C722C57
:1018E200752C0130D800782C58357F39D80021006A
:1018F2005708031D7D2C7E2C842C200063030319C2
:10190200832C842C902C210057080319892C8A2CB3
:101912009C2C20006308031D8F2C902C9C2C2100F2
:101922005908031D952C962C992C0130D9009C2C1A
:1019320059357F39D900023020006306031DA22CDD
:10194200A32CB02C21005708031DA82CA92CAC2CC9
:101952000130D700AD2CD701FF302000E100033069
:101962006306031DB52CB62CC12C6508F200640871
:10197200F100A731C3278C31903102208C31472DE1
:101982008B3154238C31943135248C312000BD01AC
:1019920021005708031DCE2CCF2CD52C2000630824
:1019A2000319D42CD52CE12C210057080319DA2C69
:1019B200DB2C022D20006303031DE02CE12C022D01
:1019C20021003503031DE62CE72CF12C58080319DE
:1019D200EB2CEC2CEE2C0130D80201302000BD00A3
:1019E20021003603031DF62CF72C022D7F305802FE
:1019F2000318FC2CFD2CFF2C0130D80701302000ED
:101A0200BD0021005708031D072D082D0E2D2000B3
:101A1200630303190D2D0E2D1A2D210057080319EA
:101A2200132D142D3B2D20006308031D192D1A2D93
:101A32003B2D21003503031D1F2D202D2A2D590872
:101A42000319242D252D272D0130D9020130200024
:101A5200BD0021003603031D2F2D302D3B2D7F307D
:101A620059020318352D362D382D0130D907013092
:101A72002000BD0020003D080319402D412D472DB7
:101A8200943135248C318B3154238C310800200061
:101A9200A4007B0803194E2D4F2D522DFF30AE00AE
:101AA200532DAE017835A50080302406031D5A2D32
:101AB2005B2D8B2DA9017A08AD007908AC00672D4A
:101AC2000130A9070130AC070030AD3D2C0884007D
:101AD2002D0885001200031D6F2D702D612D0C3015
:101AE200F0002908A7319D278D312000A90002307E
:101AF200F0000030F1008030A00029082002F2003E
:101B0200F301031CF30390310B208D317008200088
:101B1200A800932D0C30F0002408A7319D278D31A9
:101B22002000A8002808F20025089B3124238D31CB
:101B32007A082000AD007908AC00102E2C08840031
:101B42002D0885000008E03EF000FF300318003049
:101B5200F1000530F2000030F30099314B218D3154
:101B620071082000A7007008A600AA017A30A00020
:101B72008330A1002A082007A2000030213DA300E3
:101B82002208260784002308273D85000008B000AC
:101B9200AF13B01DCD2DAF1720002F13301DD22D46
:101BA2002F172000AF12301DD72DAF1620002F1295
:101BB200B01CDC2D2F162000AF11B01CE12DAF158B
:101BC20020002F11301CE62D2F152000AF10301CE5
:101BD200EB2DAF1420002F102F082E06AF002F0878
:101BE2009C31F4248D3120002F089C31F4248D3156
:101BF20001302000AA0705302A02031C012E022E02
:101C0200B72D2E089C31F4248D3120002E089C31F2
:101C1200F4248D3101302000AC070030AD3D2C089A
:101C220084002D0885001200031D182E192E9F2DE9
:101C32002808F2002508013E9B3124238D317A08C1
:101C42002000AD007908AC00972E2C0884002D08E6
:101C520085000008E03EF000FF3003180030F1007C
:101C62000530F2000030F30099314B218D317108BB
:101C72002000A7007008A600AB017A30A0008330D4
:101C8200A1002B082007A2000030213DA30022085A
:101C9200260784002308273D85000008B000AF1303
:101CA2002F13301F552E2F172000AF12301F5A2E20
:101CB200AF1620002F12B01E5F2E2F162000AF117C
:101CC200B01E642EAF1520002F11301E692E2F1565
:101CD2002000AF10301E6E2EAF1420002F10B01D4A
:101CE200732E2F1420002F082E06AF002F089C31D0
:101CF200F4248D3120002F089C31F4248D310130E1
:101D02002000AB0705302B02031C882E892E3E2EA5
:101D12002E089C31F4248D3120002E089C31F424AD
:101D22008D3101302000AC070030AD3D2C0884001D
:101D32002D0885001200031D9F2EA02E262EA731EE
:101D42008A278D310800903166208E3195313125F8
:101D52008E3121003D08803A2000C90080304902BE
:101D6200031DB62E053021003C02031CB92EBA2EEB
:101D7200D32E21004503031DBF2EC02ED32E4708AC
:101D820020006706031DC92E2100460820006606B2
:101D9200031DCC2ECD2ED02EA73124278E3120002C
:101DA200E601E70121004503031DD82ED92E222F7B
:101DB20048030319DD2EDE2E222F20006708803A09
:101DC200C90021004708803A20004902031DED2E78
:101DD20021004608200066020318F02EF12E222F61
:101DE20001302000E80764306806031DF92EFA2E40
:101DF200222FE8010130E6070030E73D21004708C5
:101E020020006706031D092F2100460820006606F0
:101E1200031D0C2F0D2F222F9931AB218E31F8018A
:101E2200F80A0230F900A930FA00FB0180308D3146
:101E320048258E310030F100F200A731C3278E31E0
:101E4200222F20006708803AC90021004708803A03
:101E520020004902031D312F21004608200066029E
:101E6200031C342F352F3B2F2100450303193A2F32
:101E72003B2FF62F01302000E3070A306306031DD3
:101E8200432F442F672FE30121003D08803A2000B1
:101E9200C90080304902031D512F013021003C024C
:101EA2000318542F552F5C2F200064086504031972
:101EB2005B2F5C2F672F21003D082000E5002100E9
:101EC2003C082000E400893144218E312100440382
:101ED200031D6C2F6D2FA52F48030319712F722F2D
:101EE200A52F3D08803A2000C90080304902031D19
:101EF2007D2F013021003C02031C802F812FA52F52
:101F020021003F08803A2000C90021004308803A9E
:101F120020004902031D902F210042083E02031CAB
:101F2200932F942FA52F6F302000DB00A930DC0007
:101F320002305B0784005C080318013E8500013F04
:101F42008A00003F0A008F31FB3020006106031D2A
:101F5200AB2FAC2FCD2F21004803031DB12FB22F81
:101F6200BB2FC8014A08F2004908F100A731C32774
:101F72008E31C02F6F302000DB00A930DC00023030
:101F820020005B0784005C080318013E8500013FC6
:101F92008A00003F0A008F31503020006106031D85
:101FA200D32FD42FFF2F21004803031DD92FDA2F5F
:101FB200E32FC8014A08F2004908F100A731C327FC
:101FC2008E31E82FB7302000DB00A930DC00023070
:101FD20020005B0784005C080318013E8500013F76
:101FE2008A00003F0A008F31FF2F20006103031D8A
:0E1FF200FB2FFC2FFF2FA73124278E31080074
:10200400BD302000DB00A930DC009A316E22903113
:102014000800F501F11F0F2810281728F009F1090D
:10202400F00A0319F10A0130F500F31F1A281B28DE
:102034002228F209F309F20A0319F30A0130F5061A
:10204400F601F70170087104031929282A28572872
:102054000130F40034280130F035F10D890B2E28BD
:102064000130F407F11F372838282D280130F635C0
:10207400F70D890B392871087302031D4328700872
:102084007202031C462847284C287008F202710883
:10209400F33B76140130F136F00C890B4D280130F6
:1020A400F402031D562857283828750803195B289D
:1020B4005C286128F609F709F60A0319F70A770874
:1020C400F1007608F0000800BC308600003087007C
:1020D400533100302000A3000030A2001030A100D2
:1020E4000030A00021005108F0005208F100890DD1
:1020F400893B8909F200F3005508F4005608F500FD
:10210400890D893B8909F600F7009B3185239031BD
:1021140073082000A7007208A6007108A5007008C3
:10212400A400963140269031403F20002007B5009E
:10213400413F213DB6003608FD003508FC009E31C4
:102144001A2690317D082000B8007C08B7003808B2
:10215400803AB40080303402031DB22802303702C2
:102164000318B528B628B9282000B701B801200003
:1021740038082100BD00200037082100BC000800F9
:1021840020006103031DC728C82822296308031DF2
:10219400CC28CD28FE280130E3079931AB219031BA
:1021A400F801ED30F900A830FA00FB0180308D31E0
:1021B40048259031F801F80A2630F900A930FA00D0
:1021C400FB0180308D31482590310230F8002830F1
:1021D400F900AA30FA00FB0180308D314825903196
:1021E4000330F800E130F900A930FA00FB01803037
:1021F4008D314825903122296303031D02290329C7
:102204001F290130E3079931AB219031F801F80A15
:10221400F830F900A830FA00FB0180308D314825F0
:1022240090310230F8005C30F900A930FA00FB016B
:1022340080308D314825903122299031022090310F
:102244000800FB3020006106031D29292A293629AC
:102254000130E30703306302031C31293229332997
:10226400E3019F3100279131503020006106031DA6
:102274003C293D2983292830E1026308031D4329B1
:1022840044294F296408031948294A2901304B2954
:102294000030E4009F310027913120006303031DC7
:1022A4005429552979296408031959295A295D297A
:1022B40021005A146029FE302100DA05DA30F400D6
:1022C4000030F500F601F60A72309831C2209131DF
:1022D40021005A186E297029013071290030F70045
:1022E400783097315E27913190310220913102305C
:1022F40020006306031D7F29802983299031022051
:102304009131080021006A082000C20021006908F8
:102314002000C1006408313EC100F801D530F90045
:10232400A930FA00FB0100308D3148259131F801C4
:102334004130F9000030FA00FB0109308D314825A5
:102344009131F801F80A5E30F900A830FA00FB0177
:1023540000308D31482591310230F800DB30F9002E
:10236400A930FA00FB0100308D314825913102304B
:102374002000B1006408BD00BE01BD35BE0D65304E
:10238400BF000030C0003D083F0786003E08403DC6
:102394008700403FB200413FB30063080319D329CB
:1023A400D5290130D6290030B40006309E31AF263D
:1023B40091310330F8001330F900AA30FA002000FC
:1023C40063030319E629E8290130E9290030FB00F9
:1023D40007308D31482591310800C030F3000030BA
:1023E400F4000230F5007030983179209131C23018
:1023F400F3000030F4000230F5006E30983179209B
:102404009131C430F3000030F400F501F50A743062
:10241400983179209131C630F3000030F400023055
:10242400F5006C30983179209131C530F3000030DB
:10243400F400F501F50A7330983179209131CB30ED
:10244400F3000030F4000230F5006A30983179204E
:102454009131CD30F3000030F4000230F5006830E3
:10246400983179209131CF30F3000030F4000230FC
:10247400F5006630983179209131D130F300003085
:10248400F4000230F5006430983179209131DA306B
:10249400F3000030F400F501F50A72309831792028
:1024A400913121005A0A031D582A592A5A2ADA015D
:1024B400080001302000E6070030E73D01306702E4
:1024C400F43003196602031C682A692A6D2A9031C4
:1024D40002209231C82AFB306106031D722A732A36
:1024E400A62AE601E70165086402B900982A0130CA
:1024F4002000E407A32A6508043EB6000030031850
:102504000130B7003708803AB80080303802031D24
:102514008D2A630836020318902A912A792A0130F9
:102524002000E507792AE501E401A32A3908003AE5
:102534000319792A013A03197D2A033A0319792ADE
:10254400952A9C31BE249231503020006106031D2F
:10255400AC2AAD2AC82A6408B600B701B635B70D4F
:102564003608680786003708693D8700403FDB006E
:10257400413FDC0002305B0784005C080318013E25
:102584008500013F8A00003F0A00923108002000C4
:102594006308B5006403031DD02AD12AE32AF80195
:1025A4000B30F900AA30FA0035080319DA2ADC2ABC
:1025B4000130DD2A0030FB0007308D31482592318F
:1025C400F42AF8010F30F900AA30FA00350803198B
:1025D400EC2AEE2A0130EF2A0030FB0007308D315F
:1025E4004825923120006608F9006508F80031306A
:1025F400FA000430FB009331B7239231F801F80A52
:102604003130F9000030FA002000350303190B2B98
:102614000D2B01300E2B0030FB0007308D31482587
:1026240092310330F800ED30F900A930FA0002309D
:102634002000350603191F2B212B0130222B0030DB
:10264400FB0000308D31482592310330F8001330FF
:10265400F900AA30FA000330200035060319332BA1
:10266400352B0130362B0030FB0007308D314825E7
:102674009231080020006308BC006803031D432B4B
:10268400442B562BF8010B30F900AA30FA003C0811
:1026940003194D2B4F2B0130502B0030FB0007301A
:1026A4008D3148259331672BF8010F30F900AA309A
:1026B400FA003C0803195F2B612B0130622B0030B8
:1026C400FB0007308D31482593312000B101B10A58
:1026D4006708B3006608B2003C030319722B742B1D
:1026E4000130752B0030B40006309D319E259331A6
:1026F40002302000B1006508B3006408B200023063
:102704003C060319862B882B0130892B0030B4003A
:1027140006309D319E2593310330F800ED30F900E9
:10272400A930FA00033020003C0603199A2B9C2B95
:1027340001309D2B0030FB0000308D314825933152
:102744000330F8001330F900AA30FA0004302000F6
:102754003C060319AE2BB02B0130B12B0030FB002B
:1027640007308D314825933108002000A001023044
:102774007B020318BE2BBF2BC02B342C7B08FF3EDF
:10278400A1007A082107A20022088600870181019E
:10279400F91FCD2BCE2BD52B0130A000F809F90958
:1027A400F80A0319F90A0130A1020130A2027908DA
:1027B400803AFC0080307C02031DE22B0130780259
:1027C400031CE52BE62B082C200022088600870139
:1027D4000A30F0000030F1007908F3007808F200C4
:1027E4009E315E2693317008303E81000A30F0003D
:1027F4000030F1007908F3007808F20090310B20E2
:1028040093317108F9007008F8002E2C7B08FE3E05
:10281400FC00FF3003180030FD00200021087C0676
:102824007D04031D162C172C1D2C220886008701FD
:10283400303081002E2C20080319212C222C292C25
:102844002208860087012D308100A0012E2C220849
:10285400860087012030810020002108031D332CCD
:10286400342CD52B080021005908F00070183B2C9B
:102874003E2C22008D15402C22008D11F018432C83
:10288400462C22000C15482C22000C1170194B2CDC
:102894004E2C22000D16502C22000D12F019532C30
:1028A400562C22008C15582C22008C11701A5B2C8B
:1028B4005E2C22008D16602C22008D12F01A632CDF
:1028C400662C22008C16682C22008C12701B6B2C38
:1028D4006E2C22000C16702C22000C1221005808B9
:1028E400F0007018762C792C22008E177B2C220095
:1028F4008E13F0187E2C812C22008E15832C22003E
:102904008E117019862C892C22000E178B2C220014
:102914000E13F0198E2C912C22000E15932C2200EC
:102924000E11701A962C992C22008E169B2C2200C4
:102934008E12F01A9E2CA12C22008E14A32C22009D
:102944008E10701BA62CA92C22000E16AB2C220074
:102954000E122100570C2200031C0E1003180E1433
:1029640008009C31542494319131EF219431A731E2
:1029740048279431983163209431F430F0000130C9
:10298400F1009831DB20943121005A18CA2CCC2C48
:102994000130CD2C0030F700783097315E27943128
:1029A400F8013F30F900A930FA00FB0180308D3185
:1029B40048259431F801F80A3730F900A930FA00B3
:1029C400FB0180308D31482594310230F8002F30DE
:1029D400F900A930FA00FB0180308D31482594318B
:1029E400DC30F0000530F1009831DB20943199316E
:1029F400AB2194319031022094315130F3000030F6
:102A0400F4000A30F5000030983179209431200028
:102A14005208F2005108F100A731C3279431210074
:102A24003A083B060319172D182D1F2D0130BA073C
:102A34000130B9078731262794310A30210039063D
:102A4400031D252D262D112DB9019F3151279431B8
:102A540099312E2194316400112D803111282000E8
:102A6400AE01AF0121005608803AFC0080307C02A0
:102A7400031D3E2D64305502031C412D422DAC2D07
:102A840021005408803AFC005608803A7C02031D59
:102A94004D2D550853020318502D512DA72DBC3030
:102AA4008600003087005731BC3084000030850038
:102AB4001931403F00022000A0000131413F003B9A
:102AC400A100A201A11BA2032208A300BC3086001E
:102AD400003087005731BC30840000308500193144
:102AE400403F0007F0000131413F003DF100F20199
:102AF400F11BF2037208F3000030F7000030F60017
:102B04000030F5006430F4009B318523953173085F
:102B14002000A7007208A6007108A5007008A40090
:102B240096314026953120002108AF002008AE00E0
:102B34002F08803AFC0083307C02031DA32DE8306B
:102B44002E02031CA62DA72DAC2DE7302000AE00CD
:102B54000330AF0020002F082100BF0020002E0802
:102B64002100BE00080001302000E3070030E43DEE
:102B740001306402F43003196302031CC22DC32D17
:102B8400C72D9031022095313F2EFB306106031D85
:102B9400CC2DCD2DFD2DE301E40167086502C400B1
:102BA400F22D01302000E507FA2D6708033EC1002D
:102BB400003003180130C2004208803AC30080305C
:102BC4004302031DE72D0A3041020318EA2DEB2DC1
:102BD400D32D01302000E707D32DE701E501FA2DBD
:102BE4004408003A0319D32D013A0319D72DEF2DC8
:102BF4009F31A8279531503020006106031D032E14
:102C0400042E3F2E6603031D082E092E262E65086A
:102C1400031D0D2E0E2E132E6330DB00A930DC00B5
:102C2400192E6508E3006930DB00A930DC000230AE
:102C34005B0784005C080318013E8500013F8A009D
:102C4400003F0A0096313F2E4530F3000030F40077
:102C54000A30F5000A30F0006508A7319D27953148
:102C6400003E98317920953120004608F20045084D
:102C7400F100A731C3279531C32D08002000A90115
:102C8400A31F452E462E532EA009A109A209A3096C
:102C9400A00A0319A10A0319A20A0319A30A0130FD
:102CA400A900A71F562E572E642EA409A509A6090C
:102CB400A709A40A0319A50A0319A60A0319A70A4E
:102CC4000130A9060030AD000030AC000030AB008C
:102CD4000030AA0023082204210420040319732EBF
:102CE400742EB32E0130A800802E0130A035A10D22
:102CF400A20DA30D890B782E0130A807A31F832EE4
:102D0400842E772E0130AA35AB0DAC0DAD0D890B99
:102D1400852E23082702031D992E22082602031D4F
:102D2400992E21082502031D992E20082402031C34
:102D34009C2E9D2EA62E2008A4022108A53B220825
:102D4400A63B2308A73B2A140130A336A20CA10CEE
:102D5400A00C890BA72E0130A802031DB22EB32E9E
:102D6400842E29080319B72EB82EC32EAA09AB093D
:102D7400AC09AD09AA0A0319AB0A0319AC0A031971
:102D8400AD0A2D08A3002C08A2002B08A1002A08D4
:102D9400A0000800FB3020006106031DD22ED32EB4
:102DA400DF2E0130E30704306302031CDA2EDB2E2E
:102DB400DC2EE3019231C9229631503020006106A5
:102DC400031DE52EE62E5D2F2830E1026308031D66
:102DD400EC2EED2EF92E6403031DF12EF22EF42EAB
:102DE400E401F62E0130E4009231C922963120002C
:102DF4006303031DFE2EFF2E2C2F6608803AB600B7
:102E040080303602031D082F64306502031C0B2F2B
:102E14000C2F122F0F302000E5070030E63D172F4E
:102E240005302000E5070030E63D6608803AB6002C
:102E340081303602031D202F2D306502031C232F01
:102E4400242F292F05302000E5000030E6009231C0
:102E5400C9229631023020006306031D322F332F1E
:102E6400562F66082100C700200065082100C6000F
:102E7400200064082100C500C630F4000030F500CD
:102E84000230F6006C309831C2209631C530F4001F
:102E94000030F500F601F60A73309831C2209631FD
:102EA4009031022096315D2F03306306031D5B2FA2
:102EB4005C2F5D2F522F0800F80078082000E200F4
:102EC40077082100B8000D178D1722000D138D13FC
:102ED4000630890B6B2F00329831A92097312000DE
:102EE40062089C31F424973100309C31F4249731EA
:102EF400AE309C31F4249731D5309C31F424973191
:102F040080309C31F4249731A8309C31F4249731DB
:102F14003F309C31F4249731D3309C31F4249731E1
:102F240000309C31F424973140309C31F4249731A3
:102F34008D309C31F424973114309C31F424973132
:102F440081309C31F4249731FF309C31F424973143
:102F5400D9309C31F4249731F1309C31F4249731E9
:102F640020309C31F424973102309C31F424973181
:102F740021309C31F424973100309C31F424973172
:102F84007F309C31F42497312E309C31F4249731D6
:102F940021003803031DCF2FD02FD92FA0309C310F
:102FA400F4249731C0309C31F4249731E12FA130BF
:102FB4009C31F4249731C8309C31F4249731DA30B1
:102FC4009C31F424973112309C31F4249731DB3056
:102FD4009C31F424973140309C31F4249731A4304F
:102FE4009C31F4249731A6309C31F4249731A731D5
:102FF4008A2797319931AB2197310800013021009C
:10300400B400B201B101D701D801D90194313524FA
:10301400983102302100B10008009931AB21983178
:10302400A731122798312000E401E501E601E70108
:103034000630E3005430E8000130E9009C31BE243E
:10304400983108009931AB219831A7311227983172
:103054002000E401E501E601E7010530E30060300A
:10306400E8000130E9009C31BE24983108000130A9
:103074002100C80098319120983171082100CA00BC
:103084007008C9000030F100F200A731C32798315D
:1030940090310220983108009931AB219831A73141
:1030A400122798312000E30121005A185A285C287D
:1030B40001305D2800302000E4009F310027983162
:1030C400080021000C1423000C1421008C1423008C
:1030D4008C1483302200970021009E171E088F391C
:1030E40020389E001E1103309E041D140800F600B3
:1030F4007308F7008B287708860087017608A731C4
:103104007727983181000130F5020130F60701304C
:10311400F7077508031D8F2890287D2808002100D3
:103124005808F200F3017208F300F201590872071B
:10313400F5000030733DF60057080319A228A328B0
:10314400A428F6177608F1007508F000080021009D
:103154000D170630890BAC28003221008D1706307C
:10316400890BB228003221008D130630890BB82850
:10317400003221000D130630890BBE2800320800EE
:10318400F7007408F800D52878088600870101083C
:10319400F00077089A311C2298310130F602013090
:1031A400F7070130F8077608031DD928DA28C6285E
:1031B40008007108F4007008F3006400EE2806307B
:1031C400F2003030890BE428F20BE428003264006A
:1031D4000130F3020030F43B73087404031DF32838
:1031E400F428E12808009931AB219831A73112273E
:1031F40098312000E3019831912098317108200022
:10320400E5007008E400E6012100D701D801D901E6
:103214009431352498318B315423983108009931F5
:10322400AB2199312000E301E40121004C08200086
:10323400E60021004B082000E50021004E08200094
:10324400E80021004D082000E700A731122799313A
:103254009131842199310800043020005B078400F7
:103264005C080318013E85001200CF001200CF0451
:1032740003193D293E294A2904305B0784005C0870
:103284000318013E8500013F8A00003F0A0099317E
:103294000800F401F501701C5029512955297208C0
:1032A400F4077308F53D0130F235F30D890B562907
:1032B4000130F136F00C890B5B2970087104031D91
:1032C400642965294D297508F1007408F000080087
:1032D4009931AB219931A73112279931F801553031
:1032E400F900A930FA00FB01FB0A80308D31482532
:1032F40099312000E401983191209931710820001E
:10330400E6007008E500983100209931080069341E
:10331400A8345E34A8345334A8344834A8343D3433
:10332400A8343234A834AB34A9349934A9349F3442
:10333400A934A534A934B134A9349334A9348D34CF
:10334400A9348734A9347534A9348134A9347B343D
:10335400A934A73108279931F601F20176089B3187
:1033640024239931F50100309C31F4249931013042
:10337400F50780307502031CC029C129B529013025
:10338400F60708307602031CC829C929AF29A731DA
:103394008A279931A7310D27993108002100340873
:1033A400FC0002307C06031DD829D929E429200019
:1033B40064080319DE29DF29E229E401FC01E42978
:1033C4000130E4000230F8007C35483E86000130CC
:1033D4008700403FF900413FFA00FB0180308D3106
:1033E4004825993108000330F800ED30F900A93080
:1033F400FA00200064080319002A022A0130032A73
:103404000030FB0000308D31482599310330F8003D
:103414001330F900AA30FA00200064030319132AB8
:10342400152A0130162A0030FB0007308D3148255B
:1034340099310800F30023009518212A222A1D2A15
:103444007308F100F201710891007208920070088B
:1034540093003F309505200003108B1F322A332A36
:10346400342A03148B132300151555309600AA3003
:103474009600951415112000031C412A422A432A60
:103484008B170800803147209A3101302000E30770
:1034940032306306031D4F2A502A542AE30199311E
:1034A400D0219A3120006103031D592A5A2A652A22
:1034B4006608F2006508F100A731C3279A319031FC
:1034C40002209A316D2A053021003406031D6B2A2F
:1034D4006C2A6D2A612A08009931AB219A31A731EF
:1034E40012279A31F8011730F900AA30FA00FB01CB
:1034F40000308D3148259A31F801F80A1B30F90063
:10350400AA30FA00FB0100308D3148259A312000A1
:10351400E301FF30E400FF30E500E801E601E701E4
:10352400983191209A3171082000EA007008E9006E
:1035340008009931AB219A31A73112279A31F80149
:10354400C930F900A930FA00FB0100308D3148255B
:103554009A31F801F80ACF30F900A930FA00FB01DA
:1035640000308D3148259A312000E30121004508BF
:103574002000E400210047082000E600210046085E
:103584002000E5009231C9229A310800073020005A
:1035940024020318CE2ACF2AD02AF52A9B31B82335
:1035A4009A3171082000A6007008A5002608F900C9
:1035B4002508F8002308FA000530FB009331B723EF
:1035C4009A3120002308043E860087017030810070
:1035D4002308053E86008701463081002308063E05
:1035E40086008701810108000730200024020318A7
:1035F400FC2AFD2AFE2A232B9B31EC239A317108E5
:103604002000A6007008A5002608F9002508F80087
:103614002308FA000530FB009331B7239A312000C8
:103624002308043E860087016E3081002308053E8E
:1036340086008701483081002308063E8600870102
:1036440081010800F4009831A9209B312000620810
:103654009C31F4249B3100309C31F4249B31740858
:10366400B03E9C31F4249B3172080F399C31F42410
:103674009B317208F3000430F336890B3E2B730838
:10368400103E9C31F4249B319831A9209B312000B9
:1036940062089C31F4249B3140309C31F4249B31EA
:1036A4000800F9007908F200F20DF20D21001D085E
:1036B4007206833972069D000630890B5F2B003237
:1036C40021009D149D18672B682B642B1C08F200A5
:1036D400F3017208F7007308F8007808F30077081C
:1036E400F2007208F300F2011B087207F5000030C3
:1036F400733DF600F535F60DF535F60D7508F00059
:103704007608F10008000030FB000030FA000030B9
:10371400F9000030F800701C902B912B992B740841
:10372400F8077508F93D7608FA3D7708FB3D013046
:10373400F435F50DF60DF70D890B9A2B0130F336A0
:10374400F20CF10CF00C890BA12B730872047104B8
:103754007004031DAE2BAF2B8D2B7B08F3007A086E
:10376400F2007908F1007808F0000800F601F7018A
:10377400F8010130F200780AC02BF235890BBF2B17
:103784007208210058050319C82BC92BDF2B7808B0
:10379400F200F301F235F30D0E3072078400283085
:1037A400733D80388500003FF400013FF500760842
:1037B4007407F6007708753DF7000130F807073005
:1037C4007802031CE62BE72BBB2B7708F100760865
:1037D400F0000800F601F701F8010130F200780A60
:1037E400F42BF235890BF32B7208210059050319C8
:1037F400FC2BFD2B132C7808F200F301F235F30DAA
:103804000030720784002830733D80388500003F03
:10381400F400013FF50076087407F6007708753D5B
:10382400F7000130F80707307802031C1A2C1B2C10
:10383400EF2B7708F1007608F00008009931AB21EE
:103844009C31F8011D30F900A930FA00FB018030E9
:103854008D3148259C31F801F80A1430F900A9305B
:10386400FA00FB0180308D3148259C310230F8008C
:103874002830F900AA30FA00FB0180308D31482548
:103884009C310330F800E730F900A930FA00FB015D
:1038940080308D3148259C31A73112279C3120007E
:1038A400E30108007A302100990022008C018D0187
:1038B4008E0120001C08FC3902389C0087309C05CE
:1038C400FA309B00210091140B1720001C158B1754
:1038D400C03023008D0522009113931321008E1311
:1038E4008E110E130E118E128E100E120E108D11DB
:1038F4000C110D128C118D128C120C12D901D801DD
:10390400D7016430C0000030C10095130800FB30BB
:1039140020006106031D8F2C902C9C2C0130E407A1
:1039240002306402031C972C982C992CE4019931E1
:10393400F5219C31503020006106031DA22CA32CDC
:10394400BD2C6408031DA72CA82CBA2C98319120F7
:103954009C3171082000E6007008E5006530F40031
:103964000030F5000A30F60000309831C2209C3156
:10397400903102209C31080020006508FC00FD0104
:103984007D08F8007C082000B100B201B135B20D09
:103994003108680786003208693D8700403FB3005C
:1039A400413FB4003308840034088500003FF90027
:1039B400013FFA0064087C060319E12CE32C013072
:1039C400E42C0030FB0080308D3148259C310130DF
:1039D400FC070130FD0704307D02031CF22CF32C9C
:1039E400C22C0800F000F101F01BF92CFA2CFD2C7C
:1039F40021008D13FF2C21008D170630890B002D1B
:103A0400003221000D170630890B062D00322100EB
:103A14000D130630890B0C2D00327035F000013087
:103A2400F10708307102031C182D192DF62C210002
:103A34008D170630890B1C2D003221000D1706301E
:103A4400890B222D003221000D130630890B282DFD
:103A540000320800210063082000B100210064083E
:103A64002000B200210065082000B3006308303E46
:103A7400B1009931AB219D31F8013130F9000030AA
:103A8400FA00FB0100308D3148259D316630F3008A
:103A94000030F4000A30F5000A30F000200063081A
:103AA400A7319D279D31003E983179209D3120001A
:103AB400E4012830E500A73112279D318A31A02284
:103AC4009D3108009931AB219D312100600820000F
:103AD400B100210061082000B2002100620820002A
:103AE400B300F801F80A3130F9000030FA00FB01A4
:103AF40000308D3148259D316530F3000030F400ED
:103B04000A30F5000030983179209D312000EF0112
:103B1400F801F80A6730F9000030FA00FB010230BE
:103B24008D3148259D312000E401A73112279D31B4
:103B34009931F5219D3108002000B600DB30860064
:103B44000030870037308400003085000530B50030
:103B540016001A00B50BAA2D3308803AB500803040
:103B64003502031DB72D64303202031CBA2DBB2D60
:103B7400CC2D20003308F9003208F8003830FA0060
:103B84000430FB009331B7239D3120003808B7007F
:103B94002E30B80020003108F8003730F90000302A
:103BA400FA003408FB0036088D3148259D310800A1
:103BB4009931AB219D31A73112279D31F801F7309E
:103BC400F900A930FA00FB0100308D3148259D3100
:103BD400F801F80AC330F900A930FA00FB010030FB
:103BE4008D3148259D310230F800F230F900A930BA
:103BF400FA00FB0100308D3148259D312000E3019E
:103C0400210044082000E800210043082000E700C8
:103C1400210042082000E600210041082000E500C0
:103C2400210040082000E40093313C239D3108002A
:103C340000302000A3000030A200C330A1005030A7
:103C4400A000A830AE006130AF000030B0000030FA
:103C5400B1007C08F0007D08F100890D893B8909D9
:103C6400F200F3007C08F4007D08F500890D893B1F
:103C74008909F600F7009B3185239E3170082000E6
:103C8400AE077108AF3D7208B03D7308B13D31080D
:103C9400A7003008A6002F08A5002E08A40096311E
:103CA40040269E3120002108B3002008B2003308CA
:103CB400FD003208FC000800F501F31F622E632E9C
:103CC4006A2EF209F309F20A0319F30A0130F50026
:103CD400F11F6D2E6E2E732EF009F109F00A0319EF
:103CE400F10A700871040319782E792EA02E013080
:103CF400F400832E0130F035F10D890B7D2E013057
:103D0400F407F11F862E872E7C2E71087302031D83
:103D14008D2E70087202031C902E912E952E700821
:103D2400F2027108F33B0130F136F00C890B962E48
:103D34000130F402031D9F2EA02E872E750803194F
:103D4400A42EA52EAA2EF209F309F20A0319F30AE6
:103D54007308F1007208F00008002000B60001307A
:103D6400B7003308803AB50080303502031DBC2EFD
:103D740064303202031CBF2EC02ED22E0A30F00053
:103D84000030F10020003308F3003208F2009031D3
:103D94000B209E3171082000B3007008B200B701F7
:103DA40020003308F9003208F8003830FA000430F3
:103DB400FB009331B7239E31200037080319E32E0B
:103DC400E42EF02E3908B80020303806031DEB2EFF
:103DD400EC2EEE2E3030B8002E30B9005730BB0038
:103DE400BC013108F8003830F9000030FA0034081A
:103DF400FB0036088D3148259E31080020006408F8
:103E04000319052F062F182FF8014730F900A930A0
:103E1400FA00630803190F2F112F0130122F0030FD
:103E2400FB0000308D3148259F31292FF8014E3099
:103E3400F900A930FA0063080319212F232F013058
:103E4400242F0030FB0000308D3148259F31033092
:103E5400F800ED30F900A930FA00200063030319DB
:103E6400342F362F0130372F0030FB0000308D31D6
:103E740048259F310330F8001330F900AA30FA00C6
:103E84000230200063060319482F4A2F01304B2FBC
:103E94000030FB0007308D3148259F310800200099
:103EA4000D18552F562F682FFA30610203185B2F17
:103EB4005C2F5E2F0130E10750306106031D632F34
:103EC400642F812F01302100B700812F2100370892
:103ED400031D6D2F6E2F7D2F200061080319732F92
:103EE400742F7D2FFB3061020318792F7A2F7D2FD9
:103EF400FB30E1007F2F2000E1012100B701200009
:103F04008D18852F862F922F01302100B60714308B
:103F14003602031C8E2F8F2F942F0130B600942F5E
:103F24002100B60120000D19982F992FA52F0130DB
:103F34002100B50714303502031CA12FA22FA72F8F
:103F44000130B500A72F2100B50108002100660843
:103F54002000B100210067082000B2002100680899
:103F64002000B300C00167084007B4003408303EA5
:103F7400B1004008013EF8003130F9000030FA0089
:103F8400650834060319C72FC92F0130CA2F003022
:103F9400FB0000308D3148259F313530F30000306F
:103FA400F4000A30F5000A30F00020003408A7318C
:103FB4009D279F31003E983179209F312000BF0119
:103FC4004008013EF8003730F9000030FA00650877
:103FD40034060319EE2FF02F0130F12F0030FB00CF
:103FE40002308D3148259F3101302000C007033055
:103FF4004002031CFE2FFF2FB52F0800203430345D
:104004003134323433343434353436343734383468
:104014003934613462346334643465346634673407
:10402400683469346A346B346C346D346E346F3490
:104034007034713472347334743475347634773440
:10404400783479347A344134423443344434453412
:1040540046344734483449344A344B344C344D3470
:104064004E344F3450345134523453345434553420
:1040740056345734583459345A343F3421342F3455
:0E4084002B342D342334253424345F3400349F
:104E1000AE30A731EB27A7310800AF30A731EB2721
:104E2000A7310800FF302000E1002100B701080091
:104E3000640080010131890B192F0034FE0012003B
:104E40001E00FE0B1F2F003420006A08F2006908C4
:104E5000F100A731C327A7319A316E22A73108008C
:104E60002000E501E701E301E4019F31A827A73114
:104E7000A7311227A73108000030F100F200A73156
:104E8000C327A7312100C80190310220A7310800B3
:104E900021000D1424000D1421008D1424008D1404
:104EA00021000D1524000D15080030342E34303447
:104EB0003034003430343A34003430343A3400344E
:104EC00030343A340034203400342000B400320846
:104ED000B500B6013108F8003530F9000030FA00AD
:104EE0003308FB0034088D314825A7310800F20053
:104EF0006400230095187D2F7E2F782F7208F00014
:104F0000F10170089100710892003F309505151469
:104F10001308080021008D130630890B8D2F0032F5
:104F200021000D170630890B932F003221008D17B9
:104F30000630890B992F00320800F200F101721C33
:104F4000A22FA32FA52F7008F1070310F00D031057
:104F5000F20C7208031DAD2FAE2F9F2F71080800B1
:104F60009931AB21A731F801B630F900A830FA0029
:104F7000FB0100308D314825A7312000E601A73123
:104F80003027A7310800F21FC62FC72FCB2F0130C3
:104F90002100D700CD2F2100D70172087F39D8001A
:104FA00071087F39D90094313524A731080099312F
:104FB000AB21A731F801C130F900A830FA00FB019C
:104FC00000308D314825A73101302000E600A7319F
:104FD0003027A7310800F2009831A920A73120001E
:104FE00062089C31F424A73180309C31F424A7312D
:104FF00072089C31F424A731A7318A27A731080011
:105000003234003464340034DC340034C2340134CB
:10501000E834033498340834303411340A3400341A
:10502000163400342F34003464340034DC3400345B
:10503000D6340134E8340334003401340234043407
:105040000834103420344034603470347F340034F9
:1050500001340234043408341034203440346034D1
:1050600070347F34203420345234653461346434F5
:1050700079342034203420340034203450345734F0
:10508000523420346C346F3477342034203400347C
:105090002034203442347234653461346B3420342B
:1050A0002034203400342034523475346E346E345D
:1050B00069346E34673420342034003477346134FA
:1050C00069347434203466342E3420344834463401
:1050D0000034203420342034203420342034203450
:1050E0002034203420340034413462346F34753439
:1050F00074342034203420342034203400345334A9
:1051000065347434753470342034203420342034C1
:1051100020340034433461346C3469346234723482
:105120006134743465342034003454346534733459
:10513000743420342034203420342034203400349B
:1051400053346C3465346534703420342034203466
:10515000203420340034543475346E3469346E3461
:105160006734203420342034203400344C346F34FD
:10517000613464342034543475346E3465342034EE
:105180000034533461347634653420345434753407
:105190006E346534203400344234793470346134F0
:1051A00073347334203420342034203400345234A7
:1051B000653473346534743420342034203420341E
:1051C0002034003444346934733470346C346134C2
:1051D0007934203420342034003459346534743424
:1051E00041346E346F34743468346534723400344E
:1051F00054347734653461346B347334203462341E
:105200007934003473346C34653465347034693403
:105210006E3467340034203442347934703461346D
:105220007334733420340034643465347334693433
:1052300067346E3465346434003448346134723415
:1052400064347734613472346534003446346934FC
:1052500072346D34773461347234653400345634CA
:1052600030342E34363438342E343234003445342D
:10527000583454342D345934413446340034413494
:10528000543455342D3431343034303400345234C5
:105290006F34743461347434653400344E346F3494
:1052A00072346D3461346C340034203454347534C9
:1052B0006E3465342034003432344534303455345F
:1052C0004D344B3400340034003464341D3489349C
:1052D0001C34003400342C341D34013408340034C0
:1052E00000346A34193444341A348A34A8341134FA
:1052F00019345A3405349534A834F53418340A3442
:105300000C34E234A8344E34183423341134A0342D
:10531000A8349B341A34CC341634AB34A834DA3481
:105320001D34F03409347434A83420341C34C234AD
:105330001034B634A834B0342734B5341534C134FD
:10534000A834D7342734B5341534D734A8343C3492
:10535000273400340034CC34A834393418340034C1
:1053600000347F34A834243418345B3412340034CD
:1053700000340F3418345B341234003400346E348B
:105380001A34A4340E3453347434613472347434A3
:10539000003453346C346534653470340034443430
:1053A00065346C3461347934003450346F3469348A
:1053B0006E347434003450346F347734653472345E
:1053C000003444344734343453344E3400344E348F
:1053D0003734443444344334003453346134763401
:1053E00065340034533474346F34703400344134D1
:1053F000753474346F3400344134553454344F347C
:1054000000343E344C342D34433400343E34433481
:105410002D344C34003420344F346E3400344F3447
:1054200066346634003445347334633400345034A5
:1054300057345234003453345734523400344F34D8
:105440006B34003443343D3400344C343D34003448
:06545000623479340034DF
:020000040001F9
:08000000FF3FFF3FFF3FFF3F00
:04000E00FF3FFF3F72
:10E00000000000005300740061007200740075008D
:10E0100070002000000000002000200020002000F0
:10E020002000200020002000000000002000200030
:10E030002000200020002000200020000000000020
:10E0400020002000200020002000200020002000D0
:10E050000000000020002000200020002000200000
:10E0600020002000000000002000200020002000F0
:10E0700020002000200020000000000020002000E0
:10E0800020002000200020002000200000000000D0
:10E090002000200020002000200020002000200080
:10E0A00000000000200020002000200020002000B0
:10E0B00020002000000000002000200020002000A0
:10E0C0002000200020002000E0002E00960000002C
:10E0D0001E0000000A0000001E0000008C0000006E
:0AE0E00078000000000000000000BE
:00000001FF
